:1000000070C200009FC200009DC200009BC20000A1
:1000100099C2000097C2000095C2000093C2000080
:1000200091C200008FC200008DC200008BC2000090
:100030000C94E02187C2000085C2000083C200004A
:1000400081C200007FC200007DC200007BC20000B0
:1000500079C2000077C2000075C200000C94EB1258
:1000600071C200000C949D110C9474116BC20000BD
:1000700069C2000067C2000065C2000063C20000E0
:1000800061C200005FC200005DC200005BC20000F0
:1000900059C2000057C2000055C200000C94C5149C
:1000A00051C200004FC200004DC200004BC2000010
:1000B00049C2000047C2000045C2000043C2000020
:1000C00041C200003FC200003DC200003BC2000030
:1000D00039C2000037C2000035C2000033C2000040
:1000E00031C20000EE11F111E011E411EA11281201
:1000F000F511F911FF11031207120D121112151249
:1001000028121B121F12231296219621962162217A
:10011000B721C421962196216221B7210763423677
:10012000B79BD8A71A39685618AEBAAB558C1D3C88
:10013000B7CC5763BD6DEDFD753EF6177231BF004C
:100140000000803F08000000BE922449123EABAA86
:10015000AA2ABECDCCCC4C3E00000080BEABAAAAE1
:10016000AA3E00000000BF000000803F0000000029
:1001700000084178D3BB4387D1133D190E3CC3BD62
:100180004282AD2B3E68EC8276BED98FE1A93E4C0F
:1001900080EFFFBE01C4FF7F3F00000000004F65FD
:1001A0007374650053756C004573746500506F730C
:1001B0006963616F20736F6C002052504D0056656B
:1001C0006C6F6369646164652076656E746F00535B
:1001D000696D21004E616F210041677561206E6F6E
:1001E0002073656E736F723F00206D00416C7469FF
:1001F000747564650020506100502E2041746D6F4D
:10020000736665726963610020430054656D702EEA
:1002100020616775610020430054656D702E204198
:100220006D62692E20320020250048756D69646179
:10023000646520416D62692E0020430054656D7035
:100240002E20416D622E00005EBCE2613FDD83C264
:100250009C7E20A3FD1F41009D23BE46DB65F88CDC
:1002600011AF32CA57E9744F657374650053756CEA
:10027000004573746500506F7369C3A7C3A36F20F3
:10028000646F20736F6C3A20002052504D00566509
:100290006C6F6369646164652076656E746F3A2083
:1002A0000053696D2100204EC3A36F2100C38167F5
:1002B0007561206E6F2073656E736F72203F200032
:1002C0006D00416C7469747564653A200050610971
:1002D000005072657373C3A36F2061746D6F736692
:1002E00065726963613A2000C2BA43090054656DC2
:1002F000706572617475726120424D503A2000C27F
:10030000BA43090054656D7065726174757261203D
:10031000C3A16775613A2000C2BA43090054656DF4
:10032000706572617475726120616D6269656E7469
:10033000653A200025090048756D6964616465208F
:10034000616D6269656E74653A2000202A2A2A2050
:1003500056616C6F726573204C69646F73202A2A32
:100360002A002000000020002300260029002C0085
:100370002F003200000100000301060109010505FC
:100380000505070508080808020202020A0A08080B
:100390000404040401010101010101010303030339
:1003A00003030303040707070C0C0C0C0C0C0C0CC8
:1003B0000202020206060606060606060B0B0B0BD9
:1003C0000B0B0B0B010210202008081020401020FE
:1003D0004080020102010804020101020408102009
:1003E0004080804020100804020180040201804007
:1003F0002010080402010804020101020408102070
:1004000040800102040810204080000021002400E8
:1004100027002A002D0030003300010100000401F4
:1004200007010A0100002200250028002B002E00F1
:100430003100340002010000050108010B01000039
:100440000A0B02090C0D0E0807030401000000004E
:10045000000000000000000000000000000000009C
:100460000000000000000000000012111000000059
:10047000000000000000000000000000000000007C
:10048000000000008091C804882309F10FB6F89499
:100490000F92E0916204F0916304C681D781CE018E
:1004A00002960E94E91780919604815080939604E9
:1004B0008091C80481508093C8040F900FBE8F892B
:1004C000988D0E943919CE010E943919DBCF809195
:1004D0006F04823010F00E942E180E94D50FD2CFE8
:1004E000651911241FBECFEFD1E2DEBFCDBF00E002
:1004F0000CBF12E0A0E0B2E0E8E2FFE400E00BBFD6
:1005000002C007900D92A43CB107D9F725E0A4ECF6
:10051000B2E001C01D92A631B207E1F712E0C1E7D7
:10052000D2E000E006C021970109802FFE010E9461
:100530002A26C037D10780E00807A9F70E94B21C1D
:100540000C9492275DCD82E693E0C7D68BE493E0CE
:10055000C4D667E373E08AE493E00E94F31040910D
:10056000D90250E060E070E02AE08AE493E00E9463
:100570002C1184E393E0B1D66DE173E08AE493E05B
:100580000E94F3104091D80250E060E070E02AE051
:100590008AE493E00E942C1188E193E09ED664E007
:1005A00073E08AE493E00E94F3104091D4025091EA
:1005B000D5026091D6027091D70222E08AE493E0DE
:1005C0000E94FF0D8FEF92E088D66DEE72E08AE414
:1005D00093E00E94F3104091D0025091D1026091BB
:1005E000D2027091D30222E08AE493E00E94FF0DD0
:1005F00088EE92E072D661ED72E08AE493E00E94A8
:10060000F3104091CE025091CF0260E070E02AE0FA
:100610008AE493E00E942C118DEC92E05ED662ECAD
:1006200072E08AE493E00E94F3106091CC02709132
:10063000CD028AE493E01ED680EC92E04ED66DEABD
:1006400072E08AE493E00E94F3108091CB02811162
:1006500004C086EA92E041D611C081EA92E03DD61C
:1006600061E08DE20E94291262E370E080E090E098
:100670000E94B31260E08DE20E9429126EE872E0DF
:100680008AE493E00E94F3104091CA0250E060E0D7
:1006900070E02AE08AE493E00E942C1189E892E05D
:1006A0001CD666E772E08AE493E00E94F310809122
:1006B000C8029091C9022091C6023091C7028217E8
:1006C000930754F42091C4023091C5028217930716
:1006D0001CF481E792E001D68091C6029091C70296
:1006E0002091C8023091C9028217930754F42091D7
:1006F000C4023091C502821793071CF48DE692E084
:10070000ECD58091C4029091C5022091C80230912D
:10071000C9028217930754F42091C6023091C70290
:10072000821793071CF487E692E0D7D58EE390E01A
:100730000E94E91F08CFCF93DF93CDB7DEB765974F
:100740000FB6F894DEBF0FBECDBF8E01035F1F4F03
:100750007E0125E1E20EF11C67E0B62EB00E6E01BF
:100760008AE0C80ED11C809142048111D4C07BD68E
:10077000882309F4D0C060E080EF17D699249394C1
:10078000712C612CAA24A394B9D58D8BB7D59D89E2
:10079000913019F48130C9F436C0272D30E0981318
:1007A0001EC080914004A81638F4F901EB5CFB4FA1
:1007B0008381892151F402C0A81639F090E0E8E065
:1007C000EA1560F0A092410409C0E72DF0E0EB5C6F
:1007D000FB4F83818929838391E009C06A2CF90149
:1007E000EB5CFB4F2381892D809582238383892FA6
:1007F000AAD5A394990C19F4739499249394F7E0CF
:10080000F71508F0C1CF20E42A1508F084C06092E3
:100810004004611003C081E0809342048091380459
:10082000882309F478C0A8E3B4E0F8018D9181939E
:10083000EE15FF05D9F7D801E0E0BA1689F08D91E1
:100840008E27E82FEF70F0E0E95BFD4F94918295E1
:100850008F70E82FF0E0E95AFD4FE491E927EDCFE2
:100860008C89E81749F06EE372E08AE493E00E9415
:10087000171160E572E007C08D85803149F088323C
:1008800039F063E572E08AE493E00E94171150C0EA
:10089000EAD5C801C4D561E084E487D5E4D5C801B0
:1008A000BED560E08EEB81D5FE0131962F0158E078
:1008B000652E712C99249394A12C20D58111A928FF
:1008C000990CF1E06F1A7108C1F7F201A1922F01A2
:1008D000EC15FD0561F7109240041092420410924D
:1008E0004104E0E4F4E0129224E0E833F207D9F79F
:1008F0006A8170E0762F66278981682B072E000CAD
:10090000880B990B0E945D2320E030E040E85DE316
:100910000E94112411C010924004109242041092BF
:100920004104E0E4F4E0129284E0E833F807D9F7F8
:1009300060E070E08AE794EC6093D4027093D50293
:100940008093D6029093D7020E94080D8823A1F1CC
:10095000809129048B3041F178F18551823060F526
:100960006091230470E080E090E00E945B2320E02F
:1009700030E040E853E40E9411242B013C018091B7
:100980002404682F70E080E090E00E945D239B01CA
:10099000AC01C301B2010E945A222DEC3CEC4CEC9C
:1009A0005DE30E9411240CC06091230470E080E09C
:1009B00090E00E945B2304C060E070E080EC9FE761
:1009C0000E942A236093D9020E94080D8823C9F14E
:1009D000809129048B3029F0A0F18551823048F0B4
:1009E00030C06091250470E080E090E00E945B23BD
:1009F0002CC0A09025046A2D6F7770E080E090E015
:100A00000E945D2320E030E040E853E40E9411247E
:100A10002B013C016091260470E080E090E00E9490
:100A20005D239B01AC01C301B2010E945A222DEC4F
:100A30003CEC4CEC5DE30E941124A7FE06C09058EC
:100A400004C060E070E080EC9FE70E942A2360937E
:100A5000D802F3D5AC0160E070E080912104909160
:100A600022049A01AB01281B390B41095109A091BD
:100A70001F04B09120040E9432262B013C019FE00C
:100A800075946794579447949A95D1F76091190497
:100A900070911A04CB01770FAA0BBB0BBC01CD01DF
:100AA0002BE0660F771F881F991F2A95D1F7209199
:100AB0001B0430911C04032E000C440B550B240D19
:100AC000351D461D571D0E940E26D301C201820FFF
:100AD000931FA41FB51F0896A11DB11DBC01CD0118
:100AE00034E095958795779567953A95D1F70E946B
:100AF0005D2320E030E040E251E40E94C222609396
:100B0000D0027093D1028093D2029093D302A9D5E0
:100B10007093CF026093CE02A4D50E945D2320E89B
:100B200036EE45EC57E40E94C22221E03EED42E45D
:100B30005EE30E9474249B01AC0160E070E080E8F9
:100B40009FE30E94592220E03AE24DE257E40E94DE
:100B500011240E942A237093CD026093CC02E7E611
:100B6000F4E08491EDEEF3E09490E7EAF3E0A490F2
:100B7000AA2079F081110E94D311EA2DF0E0EE0F46
:100B8000FF1FEC59FC4FA591B491EC91E92181E054
:100B900009F480E081708093CB028FB7F894409085
:100BA000DA025090DB026090DC027090DD028FBFB1
:100BB000D301C201912CA12C84199509A609B7096A
:100BC00089389341A105B1051CF586E30E94941272
:100BD0008132E3E09E074CF48032934039F091106B
:100BE00005C0A3949924939401C0912C62E370E012
:100BF00080E090E00E94B3122FB7F8948091DA025F
:100C00009091DB02A091DC02B091DD022FBFD4CF26
:100C10008CE0A89EA02C1124A092CA0287E30E9417
:100C200094129093C9028093C80288E30E949412A0
:100C30009093C7028093C60289E30E949412909316
:100C4000C5028093C4028EE390E00E94E91F8BCD21
:100C500083EF93E00E94191480E0D5D26CE372E038
:100C600083EF93E00E94F31081E0CDD24091D8024F
:100C700050E060E070E02AE083EF93E00E942C11E6
:100C80006FED83EF93E00E94EC1069E372E083EF75
:100C900093E00E94F3108EE390E00E94E91F83EF3F
:100CA00093E00E94191480E0AED26AE272E083EF12
:100CB00093E00E94F31081E0A6D24091D90250E067
:100CC00060E070E02AE083EF93E00E942C1167E27D
:100CD00072E083EF93E00E94F3108EE390E00E94B5
:100CE000E91F83EF93E00E94191480E08CD269E140
:100CF00072E083EF93E00E94F31081E084D2409190
:100D0000D0025091D1026091D2027091D30222E0C0
:100D100083EF93E074D76FED83EF93E00E94EC10C4
:100D200066E172E083EF93E00E94F3108EE390E0BF
:100D30000E94E91F83EF93E00E94191480E063D2C0
:100D40006BE072E083EF93E00E94F31081E05BD2EE
:100D50004091D4025091D5026091D6027091D70291
:100D600022E083EF93E04BD76FED83EF93E00E9497
:100D7000EC1068E072E083EF93E00E94F3108EE3E2
:100D800090E00E94E91F83EF93E00E94191480E035
:100D90003AD269EF71E083EF93E00E94F31081E0B3
:100DA00032D24091CE025091CF0260E070E02AE052
:100DB00083EF93E00E942C1165EF71E083EF93E0E5
:100DC0000E94F3108EE390E00E94E91F83EF93E00E
:100DD0000E94191480E017D26CEE71E083EF93E06B
:100DE0000E94F31081E00FD26091CC027091CD028D
:100DF00083EF93E03FD269EE71E083EF93E00E94CE
:100E0000F3108EE390E00E94E91F83EF93E00E94CD
:100E1000191480E0F8D169ED71E083EF93E00E944E
:100E2000F31081E0F0D18091CB02811103C064ED19
:100E300071E002C06FEC71E083EF93E00E94F31069
:100E40008EE390E00E94E91F83EF93E00E94191463
:100E500080E0D9D16EEB71E083EF93E00E94F31054
:100E600081E0D1D14091CA0250E060E070E02AE018
:100E700083EF93E00E942C1169EB71E083EF93E024
:100E80000E94F3108EE390E00E94E91F83EF93E04D
:100E90000E94191480E0B7D16DEA71E083EF93E00E
:100EA0000E94F31081E0AFD18091C8029091C902F5
:100EB0002091C6023091C702821793076CF42091EB
:100EC000C4023091C5028217930734F468EA71E0D6
:100ED00083EF93E00E94F3108091C6029091C702C5
:100EE0002091C8023091C902821793076CF42091B7
:100EF000C4023091C5028217930734F464EA71E0AA
:100F000083EF93E00E94F3108091C4029091C50298
:100F10002091C8023091C902821793076CF4209186
:100F2000C6023091C7028217930734F46EE971E06C
:100F300083EF93E00E94F3108EE390E00E94E91F9C
:100F400087CE0F931F93E0915A03F0915B0382E0E9
:100F50008083E0915603F09157031082E09158038B
:100F6000F09159038FEC808310926203E0915E034D
:100F7000F0915F0386E08083E0915C03F0915D0374
:100F8000808180618083E0915C03F0915D038081CA
:100F900088608083E0915C03F0915D0380818068CC
:100FA0008083E0915C03F0915D0380818F7D80837D
:100FB00062E0809128040E94581280E398EFAFEF1E
:100FC000BFEF80932C0490932D04A0932E04B09334
:100FD0002F0483E080930C041092DF021092DE0253
:100FE00010922803109249030E94F61580EDD9D281
:100FF000853509F042C08AEAF5D290930E048093B9
:101000000D048CEAEFD29093100480930F048EEAC3
:10101000E9D2909312048093110480EBE3D2909371
:101020001E0480931D0482EBDDD2909320048093F4
:101030001F0484EBD7D2909322048093210486EB83
:10104000D1D2909314048093130488EBCBD2909365
:101050001604809315048AEBC5D2909318048093EC
:1010600017048CEBBFD290931A04809319048EEB73
:10107000B9D290931C0480931B0420E042E060E10D
:1010800083EF93E00E94B81060E089E20E9458125A
:1010900061E08DE20E94581200E010E022E040E0A2
:1010A00052E06CE672E088E296E00E94211B23E0A9
:1010B00040E052E06EE772E08BE993E00E94211B72
:1010C00021E040E052E062E972E083EA92E00E94AF
:1010D000211B1F910F9108958F929F92AF92BF9203
:1010E000CF92DF92EF92FF92CF93DF93A0912A04E9
:1010F000882311F03A2F01C030E080912B0490E05A
:10110000880F991F8C599C4FC0903004D0903104A7
:10111000E0903204F090330440E050E0BA01FC016A
:10112000C591D49128812A2323130FC04A015B0162
:101130002FEF821A920AA20AB20A4C155D056E05BB
:101140007F0538F4B501A401EACF342F252FCB0158
:1011500004C030E020E080E090E0632F722FDF9148
:10116000CF91FF90EF90DF90CF90BF90AF909F9086
:101170008F900895909126039111FCCF813208F051
:1011800080E291E090932603909325032FEF209324
:10119000240310922303280F20932203909301032A
:1011A000909101039E6E9093010390910003913002
:1011B00061F410920003909101039093BB00909111
:1011C000BC0093FDF8CF95EC01C095EE9093BC0068
:1011D000909126039130E1F390912303981710F436
:1011E00080912303A2E0B3E020EE32E0F9019E2FCC
:1011F000921B981718F49D919193F9CF1092DF02EA
:101200008093DE020895CF93DF93CDB7DEB72897A2
:101210000FB6F894DEBF0FBECDBF1D8290E49E8353
:1012200024E12F8324E5288719829A8390E19B8308
:1012300090E59C832091FA03821710F08FEF820FC4
:101240003091FB0390E0FE01E80FF91F303121F4EB
:10125000243011F4618101C06581606883EF93E0FF
:1012600028960FB6F894DEBF0FBECDBFDF91CF91A9
:101270000C943513CF92DF92EF92FF920F931F934E
:10128000CF93DF936B01770FEE08FF08F7FE19C0CD
:10129000EC016DE2A1D78C0144275527BA014C1906
:1012A0005D096E097F092AE0CE01D6D7800F911F14
:1012B000DF91CF911F910F91FF90EF90DF90CF9032
:1012C00008952AE0B701A601DF91CF911F910F91F8
:1012D000FF90EF90DF90CF90BFC7CF93DF93BC011B
:1012E0008AE493E080D7EC0160E572E08AE493E061
:1012F0009ED78C0F9D1FDF91CF910895809135046B
:10130000E0913604F0913704F8949181982B918301
:101310002281982F909529232283A7E0B0E011978E
:10132000F1F7218192239183A3E2B0E01197F1F7C5
:1013300090817894EFECF0E03197F1F7982381E019
:1013400009F480E0089590913504E0913604F0911D
:101350003704392F309580FF13C0F8942281832FF2
:10136000822382838181892B8183A3E2B0E011975C
:10137000F1F78281982B9283789487ED90E012C0E8
:10138000F8942281832F822382838181892B818318
:10139000AFEFB0E01197F1F78281982B92837894A8
:1013A0008FE090E00197F1F70895EF92FF920F938D
:1013B0001F93CF93DF931F92CDB7DEB7082F88E03E
:1013C000E82EF12C11E081E0912F902309F480E0C8
:1013D0006983B9DF110F81E0E81AF1086981E1142E
:1013E000F10489F7611113C0F894E0913604F0918B
:1013F0003704918180913504809598239183E09101
:101400003604F091370492818923828378940F9077
:10141000DF91CF911F910F91FF90EF900895EF9280
:10142000FF920F931F93CF93DF931F92CDB7DEB739
:10143000182F60E085E59983B8DFE12E9981F92EB8
:101440008701085F1F4F60E0F70181917F01ADDFE9
:10145000E016F106C1F70F90DF91CF911F910F9128
:10146000FF90EF90089590913504E0913604F0914B
:101470003704F8948181292F2095822381837894E1
:101480008DE743E050E0815021F1DA011197F1F747
:1014900030813923C1F3F894828182238283818150
:1014A000892B81837894ABE7B7E01197F1F7F89433
:1014B000818128232183A3E1B1E01197F1F7808195
:1014C000982381E009F080E07894E3E6F6E0319734
:1014D000F1F708952091490390914304213208F0D7
:1014E0004AC0809126038111FCCF32E0309326035D
:1014F00031E0309325033FEF309324031092230310
:1015000020932203A9E2B3E042E053E0FA013E2F28
:10151000341B321718F43D913193F9CF1092010327
:1015200020910103990F922B909301039091000356
:10153000913061F410920003909101039093BB00ED
:101540009091BC0093FDF8CF95EC01C095EE90937F
:10155000BC00909126039230E1F3909124039F3FC9
:1015600079F080912403803241F08091240380330C
:1015700031F084E005C081E003C082E001C083E077
:10158000109228031092490310922703089591E0C6
:1015900090932703809343041092280310924903E9
:1015A00008951F93CF93DF931F92CDB7DEB7682FB7
:1015B00087E76983ECDF698187EE93E00E94E71398
:1015C00089DF87E7E4DF81E090E0D4DD87EE93E018
:1015D0000E949C13182F7EDF812F0F90DF91CF91F7
:1015E0001F9108950F931F93CF93DF931F92CDB751
:1015F000DEB7682F87E76983CADF698187EE93E0EA
:101600000E94E71367DF87E7C2DF82E090E0B2DD88
:1016100087EE93E00E949C1300E010E0182F87EE05
:1016200093E00E949C13082B192B54DFC8010F90E4
:10163000DF91CF911F910F91089587E7A8DF64EFA5
:1016400087EE93E00E94E7136EE287EE93E00E943C
:10165000E71340DF65E070E080E090E084D786EF3C
:10166000C1CF3F924F925F926F927F928F929F92E3
:10167000AF92BF92CF92DF92EF92FF920F931F93A0
:10168000CF93DF93CDB7DEB728970FB6F894DEBFC0
:101690000FBECDBFD2DF6C01E12CF12C10910C04F8
:1016A0001295110F110F107C1C5C87E770DF64EF3F
:1016B00087EE93E00E94E713612F87EE93E00E948C
:1016C000E71308DF80910C04811105C065E070E02C
:1016D00080E090E012C0813029F468E070E080E0A2
:1016E00090E00BC0823029F46EE070E080E090E082
:1016F00004C06AE170E080E090E035D786EF72DFE9
:101700004C01A12CB12CBA2CA92C982C882488EF40
:1017100048DF882A30900C048091210490912204A3
:10172000A7019601281B390B41095109A0911F04FB
:10173000B09120040E9432266B017C01AFE0F59449
:10174000E794D794C794AA95D1F760911904709142
:101750001A04CB01770FAA0BBB0BBC01CD01BBE078
:10176000660F771F881F991FBA95D1F720911B0428
:1017700030911C048901330F220B330BA90198010E
:101780002C0D3D1D4E1D5F1D0E940E26C20ED31E48
:10179000E41EF51E20EAC21A2FE0D20AE108F10881
:1017A000A7019601C701B6010E94DD259B01AC018E
:1017B0001CE055954795379527951A95D1F72983BC
:1017C0003A834B835C8300910D0410910E04A09129
:1017D0001104B0911204A70196010E943C262B012E
:1017E0003C018DE075946794579447948A95D1F79E
:1017F000A0911304B091140429813A814B815C813A
:101800000E943C26BB2797FDB095AB2F840D951DFC
:10181000A61DB71D0296A11DB11D32E0B595A79575
:10182000979587953A95D1F79C01AD0130584F4F68
:101830005F4FA0911D04B0911E040E9432262B011F
:101840003C014FE076946794579447944A95D1F7BA
:1018500088E090E083199109A501940104C0569590
:101860004795379527958A95D2F72D833E834F83E9
:1018700058874801110FAA08BB0852E0880C991C30
:10188000AA1CBB1C5A95D1F7A0911504B09116045F
:1018900029813A814B815C810E943C269B01AC01ED
:1018A0006BE055954795379527956A95D1F729832C
:1018B0003A834B835C83A0910F04B0911004A7017D
:1018C00096010E943C26DC01CB017BE0B595A795F3
:1018D000979587957A95D1F729813A814B815C81DB
:1018E000820F931FA41FB51F880D991DAA1DBB1D34
:1018F000032C04C0880F991FAA1FBB1F0A94D2F79C
:10190000BC01CD016E5F7F4F8F4F9F4F24E030E0D1
:1019100040E050E00E940E268D819E81AF81B88507
:10192000821B930BA40BB50B9C01AD0180E593ECDE
:10193000A0E0B0E0BC01CD0104C0969587957795F5
:1019400067953A94D2F70E94DD2597FD0BC0660F8C
:10195000771F881F991FA30192010E94EC2569013E
:101960007A010AC0A30192010E94EC2569017A0163
:10197000CC0CDD1CEE1CFF1C9927F7FC9A958F2DD3
:101980007E2D6D2D9B01AC010E94DD259B01AC01DC
:10199000AEEDBBE00E9432264C01BB2497FCB09414
:1019A000AB2CA3E4B3EEA70196010E943E26BB2711
:1019B00097FDB095AB2F880D991DAA1DBB1D8153B6
:1019C000914FAF4FBF4F44E0B595A7959795879539
:1019D0004A95D1F7BC01CD016C0D7D1D8E1D9F1D5B
:1019E00028960FB6F894DEBF0FBECDBFDF91CF9122
:1019F0001F910F91FF90EF90DF90CF90BF90AF902D
:101A00009F908F907F906F905F904F903F90089540
:101A1000CF92DF92EF92FF920F931F93CF93DF93BA
:101A2000CDB7DEB7C054D1400FB6F894DEBF0FBEBD
:101A3000CDBF2FB7F8948091DA029091DB02A0918C
:101A4000DC02B091DD022FBF40912C0450912D0497
:101A500060912E0470912F048C019D01041B150BC5
:101A6000260B370BB901A801403D574061057105B0
:101A700018F480913404B1C080932C0490932D0409
:101A8000A0932E04B0932F041092270410922604E2
:101A900010922504109224041092230461E0809196
:101AA0002804D7D46AEF70E080E090E05CD561E074
:101AB00080912804FDD460E080912804CAD464E1B8
:101AC00070E080E090E04FD5F89461E080912804C8
:101AD000C0D48BE990E00197F1F762E0809128048F
:101AE000E7D483E290E00197F1F780E0F5DA672B25
:101AF000682B692B21F41092340478943BC081E068
:101B0000EBDA672B682B692BB1F38E010F5F1F4F48
:101B10006E012FEBC21A2EEFD20A780180E0DCDAD8
:101B2000F701608371838283938381E0D5DAF701C3
:101B30006483758386839783F8E0EF0EF11CEC14C1
:101B4000FD0461F7789420E030E0F8014081518194
:101B500062817381C480D580E680F780411551058C
:101B60006105710529F0C114D104E104F10421F4E7
:101B70001092340480E031C0F90183E0F595E795D7
:101B80008A95E1F7ED5DFB4F8081880F4C155D056F
:101B90006E057F0508F4816080832F5F3F4F085FEB
:101BA0001F4F2832310589F62091270430E04091FB
:101BB00023048091240490E0840F911D409125041A
:101BC000840F911D40912604840F911D9927281799
:101BD000390771F681E080933404C05CDE4F0FB6A4
:101BE000F894DEBF0FBECDBFDF91CF911F910F9153
:101BF000FF90EF90DF90CF9008950E947E274F9244
:101C00005F926F927F928F929F92AF92BF92CF928C
:101C1000DF92EF92FF92CF93DF93EC016A017B0199
:101C2000B22E9A01AB01C701B6010E94C0248823DD
:101C300019F068EB72E027C026013701E89477F8C5
:101C40002FEF3FEF4FE75FE7C301B2010E94C024CF
:101C500081110DC02FEF3FEF4FE75FE7C301B201E6
:101C60000E94BE2218161CF46CEB72E00CC02FEF21
:101C70003FEF4FE75FE4C701B6010E940D2418163D
:101C800094F460EC72E0CE01DF91CF91FF90EF9081
:101C9000DF90CF90BF90AF909F908F907F906F908C
:101CA0005F904F90C4C22FEF3FEF4FE75FECC7014B
:101CB000B6010E94BE2287FDE4CF20E030E0A901FA
:101CC000C701B6010E94BE2287FF09C06DE2CE01A6
:101CD00083D24C01F7FAF094F7F8F09402C0812C0B
:101CE000912CA12C60E070E080E09FE3AB1441F008
:101CF00020E030E040E251E40E94C222A394F6CFFB
:101D00009B01AC01C701B6010E945A222B013C0184
:101D10000E942F236B017C010E945B239B01AC017D
:101D2000C301B2010E9459222B013C012AE0B701F4
:101D3000A601CE0191D27C01E80CF91CBB2029F050
:101D40006EE2CE0149D2E80EF91EDB2CDD2021F136
:101D500020E030E040E251E4C301B2010E941124CE
:101D60002B013C010E942F234B01A12CB12C2AE016
:101D7000B501A401CE0170D2E80EF91EC501B4016F
:101D80000E945B239B01AC01C301B2010E94592256
:101D90002B013C01DA94DACFC701DF91CF91FF909C
:101DA000EF90DF90CF90BF90AF909F908F907F90FB
:101DB0006F905F904F900895CF92DF92EF92FF92D5
:101DC0000F931F93CF93DF936C017A018B01C0E0D7
:101DD000D0E0CE15DF0589F0D8016D918D01D601D7
:101DE000ED91FC910190F081E02DC6011995892BB0
:101DF00011F47E0102C02196ECCFC701DF91CF9193
:101E00001F910F91FF90EF90DF90CF900895FC010C
:101E1000538D448D252F30E0842F90E0821B930B4F
:101E2000541710F0CF96089501970895FC01918DF5
:101E3000828D981761F0828DDF01A80FB11D5D962C
:101E40008C91928D9F5F9F73928F90E008958FEF9A
:101E50009FEF0895FC01918D828D981731F0828D4E
:101E6000E80FF11D858D90E008958FEF9FEF0895A5
:101E7000FC01918D228D892F90E0805C9F4F821B09
:101E800091098F73992708958AE493E0F1DF21E0A7
:101E9000892B09F420E0822F0895FC01848DDF0155
:101EA000A80FB11DA35ABF4F2C91848D90E00196CD
:101EB0008F739927848FA689B7892C93A089B189BC
:101EC0008C9180648C93938D848D981306C00288C6
:101ED000F389E02D80818F7D80830895EF92FF92BA
:101EE0000F931F93CF93DF93EC0181E0888F9B8D3D
:101EF0008C8D981305C0E889F989808185FD23C000
:101F0000F62E0B8D10E00F5F1F4F0F731127E02E81
:101F10008C8DE8120BC00FB607FCFACFE889F9895F
:101F2000808185FFF5CFCE01B8DFF2CF8B8DFE012A
:101F3000E80FF11DE35AFF4FF0820B8FEA89FB890E
:101F40008081806207C0EE89FF896083E889F98912
:101F500080818064808381E090E0DF91CF911F9148
:101F60000F91FF90EF900895CF93DF93EC01888D50
:101F70008823C1F0EA89FB89808185FD05C0A88995
:101F8000B9898C9186FD0EC00FB607FCF5CF808114
:101F900085FFF2CFA889B9898C9185FFEDCFCE015D
:101FA0007CDFE8CFDF91CF91089580E090E0892B2E
:101FB00019F06ADF811125C080E090E0892B41F0A3
:101FC00080E090E0892B21F00E94000081111CC06C
:101FD00080E090E0892B41F080E090E0892B21F0B7
:101FE0000E940000811113C080E090E0892BA1F0D5
:101FF00080E090E0892B81F00E94000081110AC0EE
:1020000008950E940000D8CF0E940000E1CF0E94F6
:102010000000EACF0C94000008953FB7F894809137
:10202000C2049091C304A091C404B091C50426B524
:10203000A89B05C02F3F19F00196A11DB11D3FBF00
:10204000BA2FA92F982F8827820F911DA11DB11D8E
:10205000BC01CD0142E0660F771F881F991F4A958A
:10206000D1F7089521E001C0220F6A95EAF7DC015B
:102070001C962C931C971A965C934E931997ED918E
:10208000FC910484F585E02D60E01994DC01ED916C
:10209000FC910684F785E02D41E0199581E090E000
:1020A0000895EF92FF920F931F93CF938C01FC0141
:1020B000759684E0C0E060FF02C09081C92B6695F0
:1020C000815031968111F7CF413011F4F8014489E4
:1020D000F8018585C82BC42B7801FEE0EF0EF11CBA
:1020E000F80162896C2BC7012ED4F80162896095D2
:1020F0006C23C701CF911F910F91FF90EF9023C4E4
:102100000F931F93CF93DF93062F0F70423019F474
:1021100040E0602F0FC0142F262FEC0130E0B901F2
:1021200084E0759567958A95E1F7CE01BADF412F76
:10213000602FCE01DF91CF911F910F91B2CFFC01A3
:1021400084858823A1F0218532852115310519F474
:10215000611106C007C02130310521F4611102C0B0
:10216000858701C015866585CF010E96ECC308955D
:10217000FF920F931F93CF93DF93EC01162F042F41
:10218000F22E8B85888B1092DF021092DE02109265
:102190002803109249032AD58889F9D99BD991E05F
:1021A000811190E0998B992321F087EE93E0C4D2BE
:1021B0008E878989882331F01F861C8260E0CE01DA
:1021C0000E96C1D32F2D402F612FCE01DF91CF91DD
:1021D0001F910F91FF9034C3DC01ED91FC910190B0
:1021E000F081E02D1994EF92FF920F931F93CF93FC
:1021F000DF938C017B01C0E0D0E0F701EC0FFD1F05
:102200006491662361F0D801ED91FC910190F08119
:10221000E02DC8011995892B11F02196EECFCE0142
:10222000DF91CF911F910F91FF90EF90089561156D
:10223000710579F0FB0101900020E9F73197AF01BA
:10224000461B570BDC01ED91FC910280F381E02DE0
:10225000199480E090E008954F925F926F927F9280
:10226000EF92FF920F931F93CF93DF93CDB7DEB71B
:10227000A1970FB6F894DEBF0FBECDBF7C01FA0167
:10228000CB0119A2223008F42AE08E010F5D1F4F06
:10229000422E512C612C712CBF01A30192010E948E
:1022A000EC25F901CA01015011096A3014F4605D8E
:1022B00001C0695CD8016C93232B242B252B61F77B
:1022C000B801C701B4DFA1960FB6F894DEBF0FBE08
:1022D000CDBFDF91CF911F910F91FF90EF907F9035
:1022E0006F905F904F9008951F920F920FB60F92CC
:1022F00011240BB60F922F933F934F935F936F93DD
:102300007F938F939F93AF93BF93EF93FF938AE451
:1023100093E0C3DDFF91EF91BF91AF919F918F91BA
:102320007F916F915F914F913F912F910F900BBED5
:102330000F900FBE0F901F9018951F920F920FB61F
:102340000F9211240BB60F922F938F939F93EF93BD
:10235000FF93E0915A03F0915B038081E091600369
:10236000F091610382FD12C09081809163038F5FC1
:102370008F7320916403821751F0E0916303F0E0C2
:10238000E65BFC4F958F8093630301C08081FF91D2
:10239000EF919F918F912F910F900BBE0F900FBED9
:1023A0000F901F90189590E0FC013197E231F105F4
:1023B00008F04EC08827EE58FF4F8F4F0C942A2606
:1023C000809180008F7703C0809180008F7D809303
:1023D0008000089580918000877FF9CF84B58F7742
:1023E00002C084B58F7D84BD08958091B0008F7741
:1023F00003C08091B0008F7D8093B00008958091DC
:1024000090008F7707C0809190008F7D03C08091EE
:102410009000877F8093900008958091A0008F772F
:1024200007C08091A0008F7D03C08091A000877FAE
:102430008093A0000895809120018F7707C080913C
:1024400020018F7D03C080912001877F8093200130
:1024500008951F93CF93DF93282F30E0F901E25CBA
:10246000FB4F8491F901EC53FC4FD491F901E258F0
:10247000FC4FC491CC23C1F0162F811194DFEC2FB7
:10248000F0E0EE0FFF1FEC5DFB4FA591B4918FB70D
:10249000F894111105C09C91ED2FE095E92302C03D
:1024A000EC91ED2BEC938FBFDF91CF911F910895AD
:1024B000CF93DF9390E0FC01EC53FC4F2491FC019F
:1024C000E258FC4F8491882361F190E0880F991FB6
:1024D000FC01E65FFB4FC591D491FC01EC5DFB4F25
:1024E000A591B491611109C09FB7F8948881209596
:1024F00082238883EC912E230BC0623061F49FB756
:10250000F8943881822F809583238883EC912E2B39
:102510002C939FBF06C08FB7F894E8812E2B288399
:102520008FBFDF91CF910895863308F08653909145
:102530007B00282F2870977F922B90937B008770C9
:10254000806480937C0080917A00806480937A001C
:1025500080917A0086FDFCCF8091780020917900EF
:1025600090E0922B08958F929F92AF92BF92CF925C
:10257000DF92EF92FF926B017C014FDD4B015C011A
:10258000C114D104E104F104E9F047DDDC01CB0121
:1025900088199909AA09BB09883E9340A105B1058C
:1025A00078F321E0C21AD108E108F10888EE880E1C
:1025B00083E0981EA11CB11CC114D104E104F104F4
:1025C00021F7DECFFF90EF90DF90CF90BF90AF90DC
:1025D0009F908F9008951F920F920FB60F92112423
:1025E0002F933F938F939F93AF93BF938091DA0282
:1025F0009091DB02A091DC02B091DD023091C10428
:1026000023E0230F2D3720F40196A11DB11D05C035
:1026100026E8230F0296A11DB11D2093C1048093CB
:10262000DA029093DB02A093DC02B093DD0280918A
:10263000C2049091C304A091C404B091C504019652
:10264000A11DB11D8093C2049093C304A093C40440
:10265000B093C504BF91AF919F918F913F912F91FE
:102660000F900FBE0F901F901895DC01ED91FC911B
:102670000684F785E02D40E01994E0915204F09132
:1026800053048081811103C08FEF9FEF0CC0E09154
:102690005204F09153040580F681E02D0680F78105
:1026A000E02D82819381909349048093480408959A
:1026B0000895089585ED8093BC008091BC0084FD51
:1026C000FCCF1092260308954091ED04262F30E0B0
:1026D000240F311D21323105DCF4209126032430F2
:1026E000C9F4FC0180E090E0861758F43091ED04C5
:1026F0002191DC01A553BB4FA30FB11D2C93019673
:10270000F3CF8091ED04680F6093ED0480E00895AD
:1027100081E0089582E008950895E091DF028091BC
:10272000DE02E81730F4F0E0E052FD4F808190E0E7
:1027300008958FEF9FEF08959091DF028091DE0260
:10274000981750F4E92FF0E0E052FD4F208130E07F
:102750009F5F9093DF0202C02FEF3FEFC901089502
:102760008091DE0290E02091DF02821B91090895A2
:10277000CF92DF92EF92FF920F931F93CF93DF934D
:102780007C01262F972F8A0180912703882391F0BF
:10279000C62FD72F6E01C40ED51ECC15DD0569F0EE
:1027A0006991D701ED91FC910190F081E02DC70175
:1027B0001995F3CF642F822F87DFC801DF91CF9166
:1027C0001F910F91FF90EF90DF90CF900895CF93DE
:1027D000DF931F92CDB7DEB76983209127032223B1
:1027E000D1F020914903203240F021E030E0FC019B
:1027F0003383228380E090E014C080912803E82F87
:10280000F0E0E75DFC4F998190838F5F8093280310
:102810008093490304C061E0CE01019655DF81E059
:1028200090E00F90DF91CF910895089580E090E0BF
:10283000089561E01ADF8BE39FE10197F1F70895B6
:102840000F931F93CF93DF93EC01423018F08C81EC
:1028500088608C834F836887222329F0413019F4E4
:102860008C8184608C8364E670E080E090E07BDEA5
:102870006C8164FD31C0E881F9810684F785E02D23
:1028800042E063E0CE0119958BE496E40197F1F7FD
:10289000E881F9810684F785E02D42E063E0CE010E
:1028A000199503E512E0C8010197F1F7E881F98174
:1028B0000684F785E02D42E063E0CE011995C8015A
:1028C0000197F1F7E881F9810684F785E02D42E070
:1028D00062E0CE01199514C06062CE01C6DE8BE4C1
:1028E00096E40197F1F76C816062CE01BEDE03E5EC
:1028F00012E0C8010197F1F76C816062CE01B5DE8C
:10290000C8010197F1F76C816062CE01AEDE8BEEFB
:1029100090E00197F1F784E08D836CE0CE01A5DEB5
:10292000CE0187DF82E08E8366E0CE019EDEE88105
:10293000F9810484F585E02D6FEFCE01DF91CF9111
:102940001F910F911994CF93DF93FC0123812223D0
:1029500089F0EC01818180956823608382810E94E7
:10296000C70A688187EE93E032DF0E946A0A282F47
:1029700030E002C020E030E081E090E0232B11F055
:1029800080E090E0DF91CF9108951F920F920FB6F3
:102990000F9211240BB60F922F933F934F935F9397
:1029A0006F937F938F939F93AF93BF93EF93FF9317
:1029B0008091B900887F803609F49CC068F5883220
:1029C00009F45BC090F4803109F454C038F48823D2
:1029D00009F4F6C0883009F44DC0F5C0883109F417
:1029E0004CC0803209F45DC0EEC0803409F468C088
:1029F00048F4803309F455C0883309F0E4C080936B
:102A00002403D8C0803509F44FC0883509F45DC06F
:102A1000883409F0D8C0D6C0883909F4C7C0A8F4F2
:102A2000883709F467C038F4883609F463C0803702
:102A300009F460C0C8C0883809F4B8C0803909F406
:102A40005FC0803809F0BFC05BC0803B09F486C01E
:102A500038F4803A09F466C0883A09F47FC0B3C0FC
:102A6000803C09F4A7C0883C09F4A4C0883B09F461
:102A70008AC0A9C08091010310C090912303809166
:102A80002203981770F5E091230381E08E0F809365
:102A90002303F0E0EE5FFC4F80818093BB0085EC68
:102AA00086C0809324038EC0E091230381E08E0FC3
:102AB000809323038091BB00F0E0EE5FFC4F8083A6
:102AC00090912303809122036EC0E091230381E063
:102AD0008E0F809323038091BB00F0E0EE5FFC4FEC
:102AE00080838091250381116DC081E08093000374
:102AF00084EA61C083E08093260310921105CFCF52
:102B000080911105803208F051C0E091110581E0FB
:102B10008E0F809311058091BB00F0E0EF50FB4FCA
:102B20008083BDCF85EC8093BC00109226038091FA
:102B30001105803230F4E0911105F0E0EF50FB4FC9
:102B400010826091110570E0E091EF04F091F004C3
:102B500081EF94E019951092110535C084E08093BF
:102B600026031092EE041092ED04E091EB04F09134
:102B7000EC0419958091ED04811105C081E08093EA
:102B8000ED041092CB04E091EE0481E08E0F80936F
:102B9000EE04F0E0E553FB4F80818093BB00909101
:102BA000EE048091ED04981708F479CF85E88093BE
:102BB000BC0009C085EC8093BC001092260303C0C2
:102BC0001092240377DDFF91EF91BF91AF919F9118
:102BD0008F917F916F915F914F913F912F910F90C6
:102BE0000BBE0F900FBE0F901F90189510922603EA
:102BF00081E0809325031092000361E084E129DCE9
:102C000061E085E126DCE9EBF0E080818E7F808366
:102C100080818D7F808388E48093B80085E48093F1
:102C2000BC000895279A2F9A2FEF80E792E0215059
:102C300080409040E1F700C000001F9AF5CF0F924E
:102C40000FB6F8940F920BB60F920CB60F921F921C
:102C500011242F923F924F925F926F927F928F92A8
:102C60009F92AF92BF92CF92DF92EF92FF920F931B
:102C70001F932F933F934F935F936F937F938F9304
:102C80009F93AF93BF93CF93DF93EF93FF93A09165
:102C90009404B09195040DB60D920EB60D9213BE2C
:102CA00080914A048111F3C080914D0490914E04AB
:102CB000019690934E0480934D04009799F52091CE
:102CC0005204309153044091500450915104509358
:102CD00053044093520430935104209350042091A4
:102CE0004F042F5F20934F04E0915204F09153045E
:102CF0002081211107C02FEF3FEF3093490420932B
:102D0000480410C0E0915204F09153040580F6810C
:102D1000E02D0680F781E02D228133813093490434
:102D20002093480420914804309149048217930766
:102D300010F420E09CC020E019E0E0915204F091F2
:102D400053043081311107C08FEF9FEF90934904F6
:102D5000809348048CC0E0915204F09153040580A4
:102D6000F681E02D0680F781E02D428153818417A2
:102D7000950728F4509349044093480478C0AF0164
:102D80004E5F5F4FA285B38564817581E680F780D1
:102D9000EB01FD82EC82C681D7817B836A83119629
:102DA0006D917C9112976417750721F41296DC934C
:102DB000CE931197138612863C9131503C933C91EF
:102DC000A489B5891097F9F066857785E088F18840
:102DD000EB01FD82EC82C089D1897B836A831196E5
:102DE000ED90FC901297BF01645F7F4FE616F706E7
:102DF00021F41296DC93CE931197158A148A3C9194
:102E000031503C933C91A689309193043A1710F4C9
:102E1000A09393041A9FD0011124BD0161597B4FE7
:102E20007B01DB011196CD91DC911297D583C48390
:102E30006C817D81778366836C817D81DB01139654
:102E40005C934E9312975D834C83F386E286E70191
:102E500038813F5F3883A0919404B09195044689EE
:102E600056963C91431708F468CF21E066CFE09175
:102E70009404F0919504E689D9E0ED9FF0011124C6
:102E8000E159FB4F8081823040F021E006C0809103
:102E9000C6048F5F8093C60420E08091C70481112F
:102EA00003C0222309F466C080914A04882321F0DC
:102EB00081E08093C7045EC01092C704A09194047F
:102EC000B0919504E0919404F09195042D913C917A
:102ED0008789908D82179307A8F080919404909130
:102EE00095048091940490919504279A2F9A2FEF3E
:102EF00067EA71E6215060407040E1F700C00000D1
:102F00001F9AF5CF8091930469E001C08150482F4A
:102F100050E0649F9001659F300D1124F901E15943
:102F2000FB4F9081992391F3A181B28112960D906C
:102F3000BC91A02DB283A1832E583B4FA217B3079B
:102F400031F412962D913C9113973283218399E0AD
:102F5000949FF001959FF00D1124E159FB4F0180E2
:102F6000F281E02D268137813093950420939404DB
:102F700080939304A0919404B0919504CD91CDBF1A
:102F8000DD91DEBFFF91EF91DF91CF91BF91AF91C6
:102F90009F918F917F916F915F914F913F912F9171
:102FA0001F910F91FF90EF90DF90CF90BF90AF9067
:102FB0009F908F907F906F905F904F903F902F9059
:102FC0001F900F900CBE0F900BBE0F900FBE0F9076
:102FD0000895CF93DF93FC01A085B1858281938111
:102FE00024813581EC013D832C83C481D5819B8371
:102FF0008A8311968D919C9112978E179F0721F4C9
:103000001296DC93CE931197118610868C91815085
:103010008C938C91DF91CF910895CF93DF939C0196
:10302000FB01DC011196CD91DC911297D383C28311
:103030008C819D81958384838C819D81DC01139695
:103040007C936E9312977D836C8331872087F9017F
:1030500080818F5F8083DF91CF9108950F920FB6AB
:10306000F8940F920BB60F920CB60F921F92112488
:103070002F923F924F925F926F927F928F929F9288
:10308000AF92BF92CF92DF92EF92FF920F931F9376
:103090002F933F934F935F936F937F938F939F9360
:1030A000AF93BF93CF93DF93EF93FF93A0919404DB
:1030B000B09195040DB60D920EB60D9280914A0412
:1030C000882321F081E08093C7045EC01092C7047A
:1030D000A0919404B0919504E0919404F09195042A
:1030E0002D913C918789908D82179307A8F080914C
:1030F0009404909195048091940490919504279A5A
:103100002F9A2FEF87EA91E6215080409040E1F717
:1031100000C000001F9AF5CF8091930469E001C0C0
:103120008150482F50E0649F9001659F300D11241D
:10313000F901E159FB4F9081992391F3A181B2816B
:1031400012960D90BC91A02DB283A1832E583B4FB7
:10315000A217B30731F412962D913C911397328345
:10316000218399E0949FF001959FF00D1124E1597E
:10317000FB4F0180F281E02D268137813093950449
:103180002093940480939304A0919404B0919504A7
:10319000CD91CDBFDD91DEBFFF91EF91DF91CF915A
:1031A000BF91AF919F918F917F916F915F914F915F
:1031B0003F912F911F910F91FF90EF90DF90CF9053
:1031C000BF90AF909F908F907F906F905F904F9047
:1031D0003F902F901F900F900CBE0F900BBE0F9042
:1031E0000FBE0F9008950F931F93CF93DF938C0121
:1031F000FB01808191818F3F2FEF920721F4E8013D
:10320000AF81B8850EC0D801139612962D913C91CE
:103210001397E901488159818417950710F0D90166
:10322000F4CF12968D919C91139793838283EC0136
:10323000FD83EC83B583A4831396FC93EE931297DE
:1032400011870087F80180818F5F8083DF91CF91A4
:103250001F910F910895FC010396928381832FEFB4
:103260003FEF3483238396838583908787831082FF
:103270000895CF93DF93009741F0EC01A4D6CE01DF
:103280000E94E626DF91CF918AC5DF91CF91089504
:103290000F931F93CF93DF931F921F92CDB7DEB78B
:1032A00089839A8390D689819A810E9451268C01C4
:1032B00076D50115110509F4B5DCC8010F900F9002
:1032C000DF91CF911F910F91089510924D031092AD
:1032D0004C0388EE93E0A0E0B0E080934E0390931F
:1032E0004F03A0935003B09351032AE032E0309390
:1032F0004B0320934A0325EC30E03093570320938F
:10330000560324EC30E0309359032093580320EC0B
:1033100030E030935B0320935A0321EC30E030938C
:103320005D0320935C0322EC30E030935F03209335
:103330005E0326EC30E0309361032093600310922B
:103340006303109264031092650310926603109257
:10335000EA031092E9038093EB039093EC03A093AC
:10336000ED03B093EE038CE192E09093E803809339
:10337000E70360E081E29CD8E5EEF3E0E491E093BE
:103380003504EFE9F3E0E491F0E0EE0FFF1FEC59B4
:10339000FC4F85919491909337048093360410925A
:1033A00040041092420410924104E0E4F4E01292CE
:1033B00084E0E833F807D9F785E2809328048BE0AE
:1033C00080932904E9EEF3E0E491E0932A04E3EA30
:1033D000F3E0E491E0932B0480E89EE3A0E0B0E00A
:1033E0008093300490933104A0933204B09333045B
:1033F0001092F6031092F5038EE292E09093F4039C
:103400008093F303109203048FEF809302041092D1
:1034100001041092040487E28093FE031092FF03DC
:10342000109200041092FD031092FC0384E080933C
:10343000050482E08093060481E08093070480E124
:103440008093080480E28093090480E480930A0456
:1034500080E880930B0440E050E063E083EF93E06A
:103460000C943210AF92BF92CF92DF92EF92FF9204
:103470000F931F93CF93DF9300D01F921F92CDB76E
:10348000DEB78C017B011D821C8290E0580188E030
:10349000A80EB11C0FB6F8940F92F801228D838DFF
:1034A000281708F069C0D28C448D41113DC080813D
:1034B0009181892B09F050C0F801E280F380E1147A
:1034C000F10411F480E02CC0F70182A1815082A3A5
:1034D000268991A12917B1F38111F4CF5701F2E0A8
:1034E000AF0EB11CC50175DDF70191A1968B492F77
:1034F00050E024E030E0241B350B35872487809191
:103500009304891710F49093930429E0249FC00139
:10351000259F900D1124B50181599B4F7EDD81E0DF
:10352000F8011382128219C050E0B701F8018481BA
:1035300095810E948227F801248D84819581820FD4
:10354000911D95838483228133818217930720F014
:10355000808191819583848380E0D394F801D28E19
:103560009189992319F0C8014196DCD3811176DD48
:103570000F900FBE81E055C02C813D81232B19F4A3
:103580000F900FBE4DC0911109C080914F048983E7
:1035900080914D0490914E049B838A830F900FBEBF
:1035A00012D50FB6F8940F92F801858D8F3F09F46C
:1035B000158EF801868D8F3F09F4168E0F900FBE81
:1035C000BE016C5F7F4FCE01019676D3811125C07D
:1035D0000FB6F8940F92F801928D838D0F900FBE65
:1035E000981317C0CC80DD8020919404309195040D
:1035F000B901645F7F4FC501F6DD61E0C601F9D214
:10360000C80100D5CCD3882311F091E043CF26DD4B
:10361000FCCFC801F7D4C3D3F8CFC801F3D4BFD3CC
:1036200080E00F900F900F900F900F90DF91CF914F
:103630001F910F91FF90EF90DF90CF90BF90AF90D0
:1036400008957F928F929F92AF92BF92CF92DF9216
:10365000EF92FF920F931F93CF93DF93982EC92E73
:10366000762E872EEA01D22ECA0112DE5C01892B4A
:1036700009F441C188E290E00BDE7C010097D9F0AB
:10368000DC015896BC92AE925797AE0165EA70E0A5
:10369000C5010E948B272197D7015796ED91FC9188
:1036A0005897EC0FFD1FB701675E7F4FA72DB82D10
:1036B000CD01089606C0C501DCDD1DC1A817B907FC
:1036C00049F09D014D91EB014993BE01E90128812B
:1036D0002111F4CFD70190961C922D2D243008F0A3
:1036E00023E0E7012E8B29A31AA21B861A861D8AC6
:1036F0001C8AF986E88684E090E0821B91099D8708
:103700008C87FB8AEA8A1BA21CA21DA21EA21FA2F2
:1037100091E19083DF01119782E28C93119723E36B
:103720002C9311979C921197CC9211971C92119700
:103730001C92119720E82C9311971C9211971C92C0
:1037400011971C92119722E02C93119723E02C9350
:10375000119724E02C93119725E02C93119726E0E4
:103760002C93119727E02C93119728E02C93119715
:1037700029E02C93119720E12C9311979C9311979A
:1037800092E19C93119793E19C93119794E19C9300
:10379000119795E19C93119796E19C93119797E16E
:1037A0009C93119798E19C93119799E19C931197A1
:1037B00090E29C93119791E29C9311978C931197AF
:1037C00083E28C9311971C9211971C92119786E2B9
:1037D0008C93119787E28C93119788E28C931197C1
:1037E00089E28C93119780E38C93119781E38C93FA
:1037F000B997F983E8830115110519F0F801F182F1
:10380000E0820FB6F8940F92809196048F5F8093B8
:1038100096048091940490919504892B89F5F092F7
:103820009504E092940480919604813009F03AC0A6
:103830008FE694E010DD88E794E00DDD81E894E008
:103840000ADD8AE894E007DD86EB94E004DD8DEA8A
:1038500094E001DD86E694E0FEDC8DE594E0FBDC9F
:1038600084E594E0F8DC86EB94E090935304809335
:1038700052048DEA94E0909351048093500412C056
:103880008091C00481110EC0E0919404F0919504E0
:103890009689D70156968C91891720F0F09295045D
:1038A000E09294048091BF048F5F8093BF04E7018E
:1038B0008E8990919304981710F480939304D9E023
:1038C0008D9FC0011124B7016E5F7F4F81599B4FBF
:1038D000A4DB0F900FBE8091C004882351F0E091CB
:1038E0009404F09195049689F7018689981708F455
:1038F000B5DB81E001C08FEFDF91CF911F910F9178
:10390000FF90EF90DF90CF90BF90AF909F908F90FF
:103910007F900895CF93DF9300D01F921F92CDB771
:10392000DEB79C0180914B0490914C04009761F0AC
:1039300019827B836A833D832C832091C0042223D8
:1039400029F020914A0402C080E004C0BE016F5FEC
:103950007F4F88DD0F900F900F900F900F90DF91A9
:10396000CF910895789484B5826084BD84B58160D8
:1039700084BD85B5826085BD85B5816085BD80913A
:103980006E00816080936E001092810080918100B2
:1039900082608093810080918100816080938100AA
:1039A000809180008160809380008091B10084606C
:1039B0008093B1008091B00081608093B0008091CD
:1039C000910082608093910080919100816080934A
:1039D0009100809190008160809390008091A1007F
:1039E00082608093A1008091A10081608093A100FA
:1039F0008091A00081608093A0008091210182606D
:103A00008093210180912101816080932101809127
:103A1000200181608093200180917A0084608093EE
:103A20007A0080917A00826080937A0080917A0097
:103A3000816080937A0080917A00806880937A0018
:103A40001092C1000E94A1070BEA14E020E040ECB4
:103A500050E06BEA72E082E492E0F3DD813009F03D
:103A6000ADC00FB6F8940F9280914B0490914C0426
:103A7000892B09F046C080EA94E0EDDB87E994E009
:103A8000EADB80EA94E0909347048093460487E958
:103A900094E0909345048093440481E590E0F8DB42
:103AA000EC01009751F14F96998388838AE08B8FC0
:103AB00085E08C8F0FB6F8940F92288139819B8D09
:103AC0004C8D949FC0011124B901680F791F7B832D
:103AD0006A831A8E3D832C83841B9109820F931F66
:103AE0009F838E838FEF8D8F8E8FCE010896B3DBF1
:103AF000CE014196B0DB0F900FBED0934C04C09323
:103B00004B040F900FBE80914B0490914C04892B75
:103B100009F454C009EA14E023E045E550E060EB05
:103B200072E082E490E28DDD813009F047C0F894C4
:103B30002FEF3FEF30934904209348048093C00453
:103B400010924E0410924D04A89590EC88E10FB6A7
:103B5000F894A895809360000FBE90936000A091A8
:103B60009404B0919504CD91CDBFDD91DEBFFF915E
:103B7000EF91DF91CF91BF91AF919F918F917F9105
:103B80006F915F914F913F912F911F910F91FF90F6
:103B9000EF90DF90CF90BF90AF909F908F907F90ED
:103BA0006F905F904F903F902F901F900F900CBEA2
:103BB0000F900BBE0F900FBE0F90089533D80E9448
:103BC000A1070E94D50FFDCF0FB6F8940F928091F8
:103BD0004D0490914E040F900FBE08950FB6F894C7
:103BE0000F92FC01928D0F900FBE81E0911180E049
:103BF0000895EF92FF920F931F93CF93DF931F923D
:103C0000CDB7DEB77C0100914D0410914E04809138
:103C100094049091950402966983DBD969818FEFB2
:103C2000E816F80691F4662381F06091940470918F
:103C300095046E5F7F4F84E594E00F90DF91CF9104
:103C40001F910F91FF90EF90E8C9E00EF11EE091F7
:103C50009404F0919504F382E2826091940470914F
:103C60009504E016F10670F480915004909151048F
:103C70006E5F7F4F0F90DF91CF911F910F91FF905B
:103C8000EF90B1CA80915204909153046E5F7F4FC0
:103C9000AADA8091480490914904E816F90620F4C4
:103CA000F0924904E09248040F90DF91CF911F9168
:103CB0000F91FF90EF900895FC01DB010FB6F8948F
:103CC0000F9240914D0450914E04818192812D912B
:103CD0003C9111972F3F6FEF3607F1F070914F0431
:103CE0006081761719F048175907C0F4481B590B23
:103CF0004217530770F4241B350B2D933C9380918E
:103D00004F04808380914D0490914E04928381836F
:103D100003C01D921C9202C080E001C081E00F90A0
:103D20000FBE08950F931F93CF93DF93DC01159679
:103D3000ED91FC911697C681D7818E01045F1F4FCC
:103D4000C80147D980914A04811113C00A50110952
:103D5000C8013FD99E8980919304891710F49093EC
:103D60009304B9E09B9FC0011124B80181599B4F76
:103D700003C0B80186E694E050D9E0919404F09134
:103D800095049E898689891720F481E08093C70471
:103D900001C080E0DF91CF911F910F9108958F9224
:103DA0009F92AF92BF92CF92DF92EF92FF920F93CA
:103DB0001F93CF93DF930FB6F8940F9280914A042C
:103DC000815080934A0480914A04882311F080E056
:103DD000EBC0809196048823D1F3C0E0D0E029E0C5
:103DE000F22EEE24E39480916604882339F1E09169
:103DF0006B04F0916C04C681D781CE010C96E9D892
:103E00008E010E5F1F4FC801E4D89E8980919304F4
:103E1000891710F490939304F99EC0011124B801FE
:103E200081599B4FFAD8E0919404F09195049E89B2
:103E300086899817C0F2E092C704D5CFCD2B11F038
:103E40000E943D13E090C604EE2009F4A6C089E06C
:103E5000B82EAA24A394CC24CA94DC2C80914A04C2
:103E6000811189C0C0914D04D0914E042196D09308
:103E70004E04C0934D042097B9F480915204909160
:103E800053042091500430915104309353042093F3
:103E90005204909351048093500480914F048F5F9B
:103EA00080934F040E943D138091480490914904EF
:103EB000F12CC817D90708F44EC0E0915204F091D4
:103EC00053048081811105C0D0924904C0924804F6
:103ED00042C0E0915204F09153040580F681E02D38
:103EE00006811781D80112968D919C911397C8175E
:103EF000D90728F490934904809348042CC04801C2
:103F0000B2E08B0E911CC40164D8F80184899589B4
:103F1000892B19F0C8010C965CD8D80156968C9163
:103F200090919304981710F480939304B89EC00165
:103F30001124B40181599B4F70D8E0919404F09101
:103F40009504D80156969C918689981708F4B5CFA8
:103F5000FF24F394B2CFE0919404F0919504E689A4
:103F6000BE9EF0011124E159FB4F8081823048F060
:103F7000FF24F39406C08091C6048F5F8093C6042B
:103F8000F12C8091C704811101C0F110A092C704E7
:103F9000EA94E11063CF1092C6048091C70488238D
:103FA00009F415CF5BD881E00F900FBEDF91CF9160
:103FB0001F910F91FF90EF90DF90CF90BF90AF9047
:103FC0009F908F90089580914A048F5F80934A0458
:103FD0000895CF93DF931F921F92CDB7DEB700975E
:103FE00011F43CD80AC089839A83EDDF60E08981AF
:103FF0009A81FFDDD4DE8823A1F30F900F90DF912B
:10400000CF910895EF92FF920F931F93CF93DF9379
:10401000EC010FB6F8940F921E8D7C0181E1E80E41
:10402000F11C01E0111654F48989882339F0C70185
:1040300079DE81110093C7041150F4CF8FEF8E8F7A
:104040000F900FBE0FB6F8940F921D8D7E0188E081
:10405000E80EF11C01E0111654F48885882339F02C
:10406000C70160DE81110093C7041150F4CF8FEFB8
:104070008D8F0F900FBEDF91CF911F910F91FF9009
:10408000EF900895CF93DF93CDB7DEB72C970FB69F
:10409000F894DEBF0FBECDBFE0914604F091470417
:1040A0008081FF24F394882339F0F12C0580F68178
:1040B000E02D0081118102C000E010E084DF84DD8A
:1040C0006C018091C9049091CA04C816D90618F4ED
:1040D0007AD181E001C080E0D092CA04C092C904C4
:1040E00081116FC0F1102EC0C016D10698F157DEB5
:1040F000E0914604F09147040580F681E02DE680CA
:10410000F780C70102960E94E917D7011E968C918D
:104110001E97813079F41C966D917C911D97600FEC
:10412000711F9801A601C7019AD1882319F0B8011F
:10413000C701F0DBD7015196ED91FC915297C70171
:104140001995C0C0E0914404F09145048081BB24DE
:10415000B3948111B12CE0904B04F0904C040FB655
:10416000F8940F92F701858D8F3F09F4158ED701D2
:104170005E968C915E978F3F11F45E961C920F9025
:104180000FBEF701828D811114C06091940470916B
:104190009504645F7F4FC70141960E940D18B110CE
:1041A00004C0C8018C199D0902C08FEF9FEF6B2DD1
:1041B00020DDC70127DFF3DD811184C00E942E18A6
:1041C00081C0EDDD7FC0911109C080914F048E83C5
:1041D00080914D0490914E0498878F830F900FBE6D
:1041E000F2DE0FB6F8940F92D8015D968C915D9730
:1041F0008F3F11F45D961C92F801868D8F3F09F474
:10420000168E0F900FBEBE01675F7F4FCE010696E0
:1042100053DD8111CCC0C801E1DC882309F4C3C09F
:10422000E984FA846091940470919504645F7F4FEF
:10423000C6010E94F31861E0C701DBDCC801E2DEC1
:10424000AEDD882309F4ACC091E00FB6F8940F926C
:10425000F801F28CFF2009F49BC0448D41113EC04F
:10426000FA94F801F28E8085811151C00F900FBE33
:10427000F980F7FC27C00C811D81D8011A968D9119
:104280009C911B97892B21F0C80102960E94E91787
:104290009BDCAC018091C9049091CA04481759076E
:1042A00028F44B875C878FD05C854B855093CA047C
:1042B0004093C9048F2DFF0C990BAA0BBB0B8A30BE
:1042C000910570F100914B0410914C041A861986E7
:1042D00090E06801B1E1CB0ED11CB7CF50E08681F0
:1042E0009781840F951F978386832281338182175C
:1042F000930720F08081918197838683D801169659
:104300006D917C911797CE010196FCD5A9CFC8017C
:10431000089608DD882309F4A9CF0E942E18A6CF9D
:10432000FC018827EC57FF4F8F4F94C4EA80FB8035
:10433000F801648575856E0D7F1D9701C8018FD0CA
:10434000882309F4BFCFD8015196ED91FC91529783
:10435000C8011995F8018685813009F0B3CF8485AD
:104360009585B701680F791FC801D4DAABCF6A8190
:104370007B81D8011D967C936E931C97640F751FEB
:104380009A01C8016CD09ECFC8010E9439199ACFFA
:1043900029853A85232B09F016CF0F900FBE7CCECE
:1043A0000E942E1851CFC8012DDEF9DC4DCFC80177
:1043B00029DEF5DCC80112DC882309F445CF6CCE78
:1043C0000E941F161895EF92FF920F931F93CF93A1
:1043D000DF93E0914604F09147048081882361F1E6
:1043E0000580F681E02D00811181C681D7817E0193
:1043F00082E0E80EF11CC7010E94E917E989FA89F9
:10440000CE0119958E85813021F72C853D85200FB1
:10441000311F0217130760F43B832A83D987C887AB
:10442000B70180914604909147040E94F318D1CFC0
:10443000B801CE016FDACDCF80914404909145044C
:104440009093470480934604F0934504E09344041A
:10445000DF91CF911F910F91FF90EF900895FC0194
:1044600073836283918780874617570778F0421BD2
:10447000530B8485958548175907C8F4BF016E5FB3
:104480007F4F80914404909145040DC0421753071B
:1044900018F46217730758F4BF016E5F7F4F809165
:1044A0004604909147040E94F31880E0089581E04B
:1044B00008955058BB27AA270ED075C166D130F099
:1044C0006BD120F031F49F3F11F41EF45BC10EF468
:1044D000E095E7FB51C1E92F77D180F3BA17620766
:1044E00073078407950718F071F49EF58FC10EF4D9
:1044F000E0950B2EBA2FA02D0B01B90190010C01F4
:10450000CA01A0011124FF27591B99F0593F50F40B
:10451000503E68F11A16F040A22F232F342F442763
:10452000585FF3CF469537952795A795F04053955B
:10453000C9F77EF41F16BA0B620B730B840BBAF02B
:104540009150A1F0FF0FBB1F661F771F881FC2F796
:104550000EC0BA0F621F731F841F48F487957795AA
:104560006795B795F7959E3F08F0B3CF9395880F61
:1045700008F09927EE0F979587950895D9D008F4FC
:1045800081E008950CD00FC107D140F0FED030F08B
:1045900021F45F3F19F0F0C0511139C1F3C014D1BB
:1045A00098F39923C9F35523B1F3951B550BBB27FA
:1045B000AA2762177307840738F09F5F5F4F220FA7
:1045C000331F441FAA1FA9F333D00E2E3AF0E0E8A0
:1045D00030D091505040E695001CCAF729D0FE2FEC
:1045E00027D0660F771F881FBB1F2617370748077E
:1045F000AB07B0E809F0BB0B802DBF01FF27935834
:104600005F4F2AF09E3F510568F0B6C000C15F3F82
:10461000ECF3983EDCF3869577956795B795F7951B
:104620009F5FC9F7880F911D9695879597F9089513
:10463000E1E0660F771F881FBB1F621773078407AF
:10464000BA0720F0621B730B840BBA0BEE1F88F7BE
:10465000E095089504D06894B111D9C00895BCD0F4
:1046600088F09F5790F0B92F9927B751A0F0D1F05B
:10467000660F771F881F991F1AF0BA95C9F712C0E5
:10468000B13081F0C3D0B1E00895C0C0672F782F5A
:104690008827B85F39F0B93FCCF386957795679551
:1046A000B395D9F73EF490958095709561957F4FBD
:1046B0008F4F9F4F0895E89409C097FB3EF4909563
:1046C0008095709561957F4F8F4F9F4F9923A9F0EB
:1046D000F92F96E9BB279395F6958795779567957A
:1046E000B795F111F8CFFAF4BB0F11F460FF1BC0BE
:1046F0006F5F7F4F8F4F9F4F16C0882311F096E951
:1047000011C0772321F09EE8872F762F05C06623FE
:1047100071F096E8862F70E060E02AF09A95660FB7
:10472000771F881FDAF7880F9695879597F9089570
:10473000990F0008550FAA0BE0E8FEEF16161706B2
:10474000E807F907C0F012161306E407F50798F01A
:10475000621B730B840B950B39F40A2661F0232B33
:10476000242B252B21F408950A2609F4A140A695AF
:104770008FEF811D811D089597F99F6780E870E094
:1047800060E008959FEF80EC089500240A941616C7
:10479000170618060906089500240A94121613062F
:1047A000140605060895092E0394000C11F48823BD
:1047B00052F0BB0F40F4BF2B11F460FF04C06F5FD9
:1047C0007F4F8F4F9F4F089557FD9058440F551FAF
:1047D00059F05F3F71F04795880F97FB991F61F083
:1047E0009F3F79F087950895121613061406551FFA
:1047F000F2CF4695F1DF08C0161617061806991F66
:10480000F1CF86957105610508940895E894BB275A
:1048100066277727CB0197F908958ADF08F48FEF91
:1048200008950BD0C0CFB1DF28F0B6DF18F0952384
:1048300009F0A2CFA7CF1124EACFC6DFA0F3959F3E
:10484000D1F3950F50E0551F629FF001729FBB2777
:10485000F00DB11D639FAA27F00DB11DAA1F649F23
:104860006627B00DA11D661F829F2227B00DA11DD6
:10487000621F739FB00DA11D621F839FA00D611D5C
:10488000221F749F3327A00D611D231F849F600D7D
:10489000211D822F762F6A2F11249F5750408AF0B6
:1048A000E1F088234AF0EE0FFF1FBB1F661F771F42
:1048B000881F91505040A9F79E3F510570F05CCF82
:1048C000A6CF5F3FECF3983EDCF38695779567952E
:1048D000B795F795E7959F5FC1F7FE2B880F911D60
:1048E0009695879597F90895FA01EE0FFF1F309678
:1048F0002105310599F16115710561F48038BFE337
:104900009B0749F168949038810561F08038BFEFCA
:104910009B0741F0992342F5FF3FE1053105210551
:1049200011F1E8940894E795D901AA2329F4AB2F53
:10493000BE2FF85FD0F310C0FF5F70F4A695E0F7CC
:10494000F73950F019F0FF3A38F49F779F930CD065
:104950000F9007FC905808953EF014CF60E070E08F
:1049600080E89FE308954FE79F775F934F933F93CE
:104970002F93A2D02F913F914F915F9152DF09C0A9
:10498000D7DE880B990B089519F40EF0F5CE3ECFC3
:10499000F9CE22DFC8F39638C0F707F80F92E894F3
:1049A0002BE33AEA48EB5FE74ADF0F920F920F9250
:1049B0004DB75EB70F92C0D0ECE1F1E016D04F9149
:1049C0005F91EF91FF91E595EE1FFF1F49F0FE57B4
:1049D000E0684427EE0F441FFA95E1F74195550B27
:1049E00032D00F9007FE26C00895DF93CF931F9318
:1049F0000F93FF92EF92DF927B018C01689405C0C8
:104A0000DA2EEF011ADFFE01E894A5912591359188
:104A100045915591AEF3EF015EDDFE019701A801CE
:104A2000DA9479F7DF90EF90FF900F911F91CF917B
:104A3000DF9108959B01AC0160E070E080E89FE3A6
:104A4000A1CD9ACEACC0C8DEE8F39923D9F3940F78
:104A5000511DBBF39150504094F059F0882332F02F
:104A6000660F771F881F91505040C1F79E3F510538
:104A700044F7880F911D9695879597F908955F3FA4
:104A8000ACF0983E9CF0BB27869577956795B795D7
:104A900008F4B1609395C1F7BB0F58F711F460FFAC
:104AA000E8CF6F5F7F4F8F4F9F4FE3CFB0CE0EF0B9
:104AB00076C068CE689460CE8FDEC8F39923D1F3B8
:104AC000C6F3DF93CF931F930F93FF92C92FDD2778
:104AD00088232AF02197660F771F881FDAF720E0D6
:104AE00030E040E85FEB9FE3883920F0803E30F013
:104AF00021968F77DFDCE4E4F1E003C0DBDCE1E763
:104B0000F1E073DF8B01BE01EC01FB2E6F577109E1
:104B10007595771F880B990BD0DD28E132E741E3CB
:104B20005FE38BDEAF2D9801AE01FF900F911F91D7
:104B3000CF91DF91D0DC37CEFA01DC01AA0FBB1F89
:104B40009B01AC01BF5728F4222733274427507814
:104B50001FC0B75188F4AB2F002446953795279591
:104B6000011CA395D2F3002069F0220F331F441FCC
:104B7000B395DAF30DD09DCC61307105A0E88A07BA
:104B8000B94630F49B01AC016627772788279078D7
:104B9000309621F0208331834283538308959F3FD1
:104BA00031F0915020F4879577956795B795880FE8
:104BB000911D9695879597F90895DB018F939F93A3
:104BC00051D0BF91AF91A29F800D911DA39F900DD9
:104BD000B29F900D11240895A1E21A2EAA1BBB1BAF
:104BE000FD010DC0AA1FBB1FEE1FFF1FA217B307B9
:104BF000E407F50720F0A21BB30BE40BF50B661FCF
:104C0000771F881F991F1A9469F760957095809592
:104C100090959B01AC01BD01CF010895052E97FB36
:104C200016F400940FD057FD05D0D6DF07FC02D054
:104C300046F408C050954095309521953F4F4F4F11
:104C40005F4F089590958095709561957F4F8F4F38
:104C50009F4F0895EE0FFF1F881F8BBF0790F6919F
:104C6000E02D19940FD0A59F900DB49F900DA49F97
:104C7000800D911D11240895B7FFF4CFF3DF821B3F
:104C8000930B0895A29FB001B39FC001A39F700D25
:104C9000811D1124911DB29F700D811D1124911D44
:104CA0000895CF93DF938230910510F482E090E075
:104CB000E0911405F091150520E030E0C0E0D0E06F
:104CC000309711F14081518148175907C0F04817BA
:104CD000590761F482819381209719F09B838A831D
:104CE0002BC0909315058093140526C0211531051E
:104CF00019F04217530718F49A01BE01DF01EF01C2
:104D00000280F381E02DDCCF2115310509F1281B4C
:104D1000390B2430310590F412968D919C911397A4
:104D20006115710521F0FB019383828304C0909388
:104D3000150580931405FD01329644C0FD01E20F74
:104D4000F31F81939193225031092D933C933AC0E4
:104D50002091120530911305232B41F4209102027A
:104D60003091030230931305209312052091000225
:104D7000309101022115310541F42DB73EB7409124
:104D8000040250910502241B350BE0911205F091AD
:104D90001305E217F307A0F42E1B3F0B2817390762
:104DA00078F0AC014E5F5F4F2417350748F04E0F87
:104DB0005F1F50931305409312058193919302C096
:104DC000E0E0F0E0CF01DF91CF9108950F931F93C2
:104DD000CF93DF93009709F48CC0FC0132971382C4
:104DE000128200911405109115050115110581F429
:104DF00020813181820F931F20911205309113057C
:104E00002817390779F5F0931305E093120571C05F
:104E1000D80140E050E0AE17BF0750F412962D9134
:104E20003C911397AD012115310509F1D901F3CF5B
:104E30009D01DA013383228360817181860F971F80
:104E40008217930769F4EC0128813981260F371FF7
:104E50002E5F3F4F318320838A819B81938382839E
:104E6000452B29F4F0931505E093140542C01396E1
:104E7000FC93EE931297ED01499159919E01240FF5
:104E8000351FE217F30771F480819181840F951F1C
:104E9000029611969C938E938281938113969C9394
:104EA0008E931297E0E0F0E0D80112968D919C91DC
:104EB0001397009719F0F8018C01F6CF8D919C9112
:104EC00098012E5F3F4F820F931F20911205309162
:104ED00013052817390769F4309729F4109215053E
:104EE0001092140502C013821282109313050093CE
:104EF0001205DF91CF911F910F91089581E090E00D
:104F0000F89410C0FB01DC0102C001900D924150E9
:104F10005040D8F70895DC0101C06D9341505040D6
:084F2000E0F70895F894FFCFBB
:104F2800000016058000000000006E0FDC0E070F61
:104F3800B40F380F160F2A0F00000000E713B8133C
:104F480016148C13B0139C138D1300000000461028
:104F5800DC0E16141514B81032109F10801043522E
:104F680043206973206E6F742076616C6964210038
:104F78000D0A00446576696365206973206E6F7455
:104F8800207265636F676E697A65640053686F772E
:104F980056616C7565734C43445461736B00476587
:104FA8007453656E736F7256616C75657354617373
:104FB8006B005072696E7456616C7565734F6E4301
:104FC8006F6E736F6C655461736B0049444C450098
:104FD800546D7220537663006E616E00696E6600D0
:044FE8006F7666007A
:020000023000CC
:10E000000D9489F10D94B2F10D94B2F10D94B2F129
:10E010000D94B2F10D94B2F10D94B2F10D94B2F1F0
:10E020000D94B2F10D94B2F10D94B2F10D94B2F1E0
:10E030000D94B2F10D94B2F10D94B2F10D94B2F1D0
:10E040000D94B2F10D94B2F10D94B2F10D94B2F1C0
:10E050000D94B2F10D94B2F10D94B2F10D94B2F1B0
:10E060000D94B2F10D94B2F10D94B2F10D94B2F1A0
:10E070000D94B2F10D94B2F10D94B2F10D94B2F190
:10E080000D94B2F10D94B2F10D94B2F10D94B2F180
:10E090000D94B2F10D94B2F10D94B2F10D94B2F170
:10E0A0000D94B2F10D94B2F10D94B2F10D94B2F160
:10E0B0000D94B2F10D94B2F10D94B2F10D94B2F150
:10E0C0000D94B2F10D94B2F10D94B2F10D94B2F140
:10E0D0000D94B2F10D94B2F10D94B2F10D94B2F130
:10E0E0000D94B2F141546D656761323536300041AF
:10E0F000726475696E6F206578706C6F72657220DE
:10E1000073746B3530305632206279204D4C530099
:10E11000426F6F746C6F616465723E004875683F52
:10E1200000436F6D70696C6564206F6E203D200048
:10E130004350552054797065202020203D20005FF9
:10E140005F4156525F415243485F5F3D2000415658
:10E1500052204C696243205665723D20004743437C
:10E160002056657273696F6E203D20004350552024
:10E1700049442020202020203D20004C6F7720663D
:10E18000757365202020203D20004869676820665F
:10E190007573652020203D200045787420667573D6
:10E1A00065202020203D20004C6F636B2066757336
:10E1B000652020203D20004D617220203720323024
:10E1C000313300312E362E3800342E332E350056A2
:10E1D00023202020414444522020206F7020636F70
:10E1E00064652020202020696E73747275637469E1
:10E1F0006F6E2061646472202020496E74657272B3
:10E20000757074006E6F20766563746F7200726A49
:10E210006D702020006A6D70200057686174207056
:10E220006F72743A00506F7274206E6F7420737541
:10E2300070706F72746564004D7573742062652030
:10E2400061206C6574746572002000577269747483
:10E25000696E672045450052656164696E672045B7
:10E26000450045452065727220636E743D00504F35
:10E27000525400303D5A65726F2061646472003FF1
:10E280003D43505520737461747300403D454550C3
:10E29000524F4D207465737400423D426C696E6B41
:10E2A000204C454400453D44756D70204545505215
:10E2B0004F4D00463D44756D7020464C415348001B
:10E2C000483D48656C70004C3D4C69737420492F83
:10E2D0004F20506F72747300513D51756974005234
:10E2E0003D44756D702052414D00563D73686F7707
:10E2F00020696E7465727275707420566563746FF0
:10E30000727300593D506F727420626C696E6B00BD
:10E310002A0011241FBECFEFD1E2DEBFCDBF01E046
:10E320000CBF12E0A0E0B2E0EEE1FDEF03E00BBFB6
:10E3300002C007900D92A030B107D9F712E0A0E01B
:10E34000B2E001C01D92AE30B107E1F70F9460F367
:10E350000D948DFE01E20EBF0FEF0DBF11241FBE05
:10E360000D9460F30D9400F020E030E040ED57E0B4
:10E3700005C0FA013197F1F72F5F3F4F2817390792
:10E38000C0F308959C01260F311DC901A0E0B0E043
:10E390002F5F3F4FABBFFC018791882361F08093D3
:10E3A000C6008091C00086FFFCCF8091C0008064D1
:10E3B0008093C000EACF08958DE08093C6008091DD
:10E3C000C00086FFFCCF8091C00080648093C000B5
:10E3D0008AE08093C6008091C00086FFFCCF8091C8
:10E3E000C00080648093C00008950F94C2F10F9420
:10E3F000DCF10895FC019081992359F09093C600B7
:10E400008091C00086FFFCCF8091C0008064809323
:10E41000C0003196992379F70895282F982F929567
:10E420009F70892F805D8A3308F0895F8093C600D2
:10E430008091C00086FFFCCF8091C00080648093F3
:10E44000C000822F8F70982F905D9A3308F0995FEB
:10E450009093C6008091C00086FFFCCF8091C000E1
:10E4600080648093C00008959C01FB01853691056E
:10E470001CF46330710594F0C90164E670E00F94F8
:10E480002EFE605D7F4F6093C6008091C00086FFC6
:10E49000FCCF8091C00080648093C0002B30310598
:10E4A00014F43297B4F0C90164E670E00F942EFEC4
:10E4B0006AE070E00F942EFE605D7F4F6093C600AF
:10E4C0008091C00086FFFCCF8091C0008064809363
:10E4D000C000C9016AE070E00F942EFEC0968093E0
:10E4E000C6008091C00086FFFCCF8091C000806490
:10E4F0008093C00008951F93182F8EE692EE60E07F
:10E500000F94C2F11093C6008091C00086FFFCCF2B
:10E510008091C00080648093C0000F94DCF11F9153
:10E5200008952F923F924F925F926F927F928F92B7
:10E530009F92AF92BF92CF92DF92EF92FF920F9392
:10E540001F93DF93CF93CDB7DEB762970FB6F894E2
:10E55000DEBF0FBECDBF382E622ECA01DB015C01CB
:10E560006D01772420E2222E2E010894411C511CBB
:10E570008BC081E0A81680E0B80681E0C80680E084
:10E58000D80628F0C601AA27BB270F940DF2BB2797
:10E59000AD2D9C2D8B2D0F940DF28A2D0F940DF225
:10E5A0002092C6008091C00086FFFCCF8091C00001
:10E5B00080648093C0009DE29093C6008091C0006B
:10E5C00086FFFCCF8091C00080648093C0002092C1
:10E5D000C6008091C00086FFFCCF8091C00080649F
:10E5E0008093C00019828601750188249924A1E0D6
:10E5F0003A1651F03A1620F0B2E03B1661F409C029
:10E600000BBFF701779007C0C7010F9477FE782EF4
:10E6100002C0F7017080872D0F940DF22092C60082
:10E620008091C00086FFFCCF8091C0008064809301
:10E63000C000872D8052F401EF70F0708F3520F408
:10E64000E40DF51D708204C0E40DF51D8EE280839B
:10E650000894E11CF11C011D111D0894811C911CE2
:10E6600090E18916910409F0C2CF80E190E0A0E02A
:10E67000B0E0A80EB91ECA1EDB1E198AC2010F9493
:10E68000FAF10F94DCF16A94662009F072CF629679
:10E690000FB6F894DEBF0FBECDBFCF91DF911F91B3
:10E6A0000F91FF90EF90DF90CF90BF90AF909F9031
:10E6B0008F907F906F905F904F903F902F90089534
:10E6C0002F923F924F925F926F927F928F929F9282
:10E6D000AF92BF92CF92DF92EF92FF920F931F9370
:10E6E000DF93CF93CDB7DEB7CD53D1400FB6F894BB
:10E6F000DEBF0FBECDBF01E20EBF0FEF0DBF94B75F
:10E70000F894A89514BE80916000886180936000A1
:10E7100010926000789493FF05C0E0910002F091A0
:10E7200001021995279A2F9A8091C00082608093E8
:10E73000C00080E18093C40088E18093C1000000A4
:10E74000EE24FF24870144E0A42EB12CCC24DD2448
:10E7500024C0C5010197F1F70894E11CF11C011DCB
:10E76000111D21E2E2162EE4F20620E0020720E06D
:10E77000120718F031E0C32ED12CC801B70127ECE5
:10E780003BE140E050E00F9441FE611571058105C9
:10E79000910519F485B1805885B98091C00087FD35
:10E7A00003C0C114D104A9F2A6014F5F5F4FC25E3E
:10E7B000DE4F59834883CE51D140C25EDE4F8881FF
:10E7C0009981CE51D140019711F00D9410FEC05D9A
:10E7D000DE4F19821882C053D14060E0C15DDE4F28
:10E7E0001882CF52D14088249924C35DDE4F19820C
:10E7F0001882CD52D140C05EDE4F188219821A8233
:10E800001B82C052D140CE5CDE4F188219821A8220
:10E810001B82C253D140EE24FF2487010BBFF701B6
:10E8200007911691C45CDE4F19830883CC53D14005
:10E830000D940BFEC25EDE4F28813981CE51D1404E
:10E840002130310509F52091C600C25EDE4F1982E4
:10E850001882CE51D14022C02F5F3F4F4F4F5F4FA4
:10E86000213082E138078AE7480780E0580780F0C6
:10E87000C45CDE4FE881F981CC53D140EF5FFF4F9C
:10E8800019F0EE27FF27099420E030E040E050E047
:10E890008091C00087FFE0CF2091C600C35DDE4FAE
:10E8A00048815981CD52D1404F5F5F4FC35DDE4FEC
:10E8B00059834883CD52D140213209F063C64A3092
:10E8C000510508F05FC60894811C911C53E0851621
:10E8D000910409F059C600E010E018C081E280936D
:10E8E000C6008091C00086FFFCCF8091C00080648C
:10E8F0008093C0002F5F3F4F2931310579F70F9486
:10E90000DCF10F5F1F4F0530110519F020E030E0FA
:10E91000E5CF10920A0210920B0210920C02109294
:10E920000D02109206021092070210920802109235
:10E930000902109202021092030210920402109235
:10E9400005028FEE90EE60E00F94F5F180E191EE1C
:10E9500060E00F94C2F18091C00087FFFCCF9091DE
:10E96000C600903608F09F759032B8F09093C600BC
:10E970008091C00086FFFCCF8091C00080648093AE
:10E98000C000A0E2A093C6008091C00086FFFCCF2B
:10E990008091C00080648093C000983409F4D7C18E
:10E9A0009934B8F4923409F459C1933458F490333B
:10E9B00019F1903308F4E3C59F33A1F1903409F0C5
:10E9C000DEC5BDC0953409F470C1963409F0D7C5D1
:10E9D00098C1923509F42BC2933538F49C3409F46C
:10E9E000F5C1913509F0CBC518C2963509F445C279
:10E9F000993509F0C4C567C483E792EE62E00F94CD
:10EA0000F5F110920602109207021092080210927D
:10EA1000090210920A0210920B0210920C0210923C
:10EA20000D0213C18FE792EE62E00F94F5F18FEEC5
:10EA300090EE60E00F94F5F181E291EE60E00F94CA
:10EA4000C2F187EB91EE60E00F94F5F180E391EE77
:10EA500060E00F94C2F184EE90EE60E00F94F5F167
:10EA60008FE391EE60E00F94C2F186E090E061E008
:10EA700070E00F9434F20F94DCF18DE591EE60E0DC
:10EA80000F94C2F189EC91EE60E00F94F5F18EE401
:10EA900091EE60E00F94C2F183EC91EE60E00F9490
:10EAA000F5F18CE691EE60E00F94C2F18EE10F94E7
:10EAB0000DF288E90F940DF281E00F940DF20F949E
:10EAC000DCF18BE791EE60E00F94C2F119E0E0E039
:10EAD000F0E010935700E4918E2F0F940DF20F94F5
:10EAE000DCF18AE891EE60E00F94C2F1E3E0F0E03F
