:10000000B4C20000E3C20000E1C20000DFC2000091
:10001000DDC20000DBC20000D9C20000D7C2000070
:10002000D5C20000D3C20000D1C20000CFC2000080
:10003000CDC20000CBC20000C9C20000C7C2000090
:10004000C5C20000C3C20000C1C20000BFC20000A0
:10005000BDC20000BBC20000B9C200000C94F00891
:10006000B5C200006FC7000044C70000AFC2000067
:10007000ADC20000ABC20000A9C20000A7C20000D0
:10008000A5C20000A3C20000A1C200009FC20000E0
:100090009DC200009BC2000099C200000C94CC09D4
:1000A00095C2000093C2000091C200008FC2000000
:1000B0008DC200008BC2000089C2000087C2000010
:1000C00085C2000083C2000081C200007FC2000020
:1000D0007DC200007BC2000079C2000077C2000030
:1000E00075C20000F307F607E507E907EF072D08DB
:1000F000FA07FE07040808080C08120816081A0870
:100100002D0820082408280807634236B79BD8A783
:100110001A39685618AEBAAB558C1D3CB7CC57632C
:10012000BD6DEDFD753EF6177231BF000000803FDA
:1001300008000000BE922449123EABAAAA2ABECDF6
:10014000CCCC4C3E00000080BEABAAAAAA3E000068
:100150000000BF000000803F000000000008417860
:10016000D3BB4387D1133D190E3CC3BD4282AD2B97
:100170003E68EC8276BED98FE1A93E4C80EFFFBE8F
:1001800001C4FF7F3F000000000000407A10F35AD6
:1001900000A0724E18090010A5D4E80000E87648C7
:1001A000170000E40B54020000CA9A3B000000E173
:1001B000F505000080969800000040420F00000006
:1001C000A08601000000102700000000E8030000E6
:1001D00000006400000000000A00000000000100B0
:1001E000000000002C76D888DC674F0823DFC1DFD1
:1001F000AE59E1B1B796E5E3E453C63AE6519976D4
:1002000096E8E6C28426EB898C9B62ED407C6FFC0D
:10021000EFBC9C9F40F2BAA56FA5F490055A2AF74F
:100220005C936B6CF9676DC11BFCE0E40D47FEF558
:1002300020E6B500D0ED902E0300943577050080C0
:10024000841E080000204E0A000000C80C3333331F
:10025000330F986E12831141EF8D2114893BE655BF
:1002600016CFFEE6DB18D1844B381BF77C1D901DA2
:10027000A4BBE424203284725E228100C9F124EC04
:10028000A1E53D2700002100240027002A002D00C1
:100290003000330001010000040107010A010000E1
:1002A0002200250028002B002E003100340002011E
:1002B0000000050108010B0141206C6572205365A7
:1002C0006E736F7265732E2E00005EBCE2613FDDBF
:1002D00083C29C7E20A3FD1F41009D23BE46DB659B
:1002E000F88C11AF32CA57E97400000A0B02090CEE
:1002F0000D0E0807030401000000000000000000CC
:1003000000000000000000000000000000000000ED
:1003100000000000001211100000000000000000AA
:100320000000000000000000000000000000004F7E
:10033000657374650053756C004573746500506F88
:100340007369C3A7C3A36F20646F20736F6C3A20D7
:10035000002052504D0056656C6F6369646164659E
:100360002076656E746F3A200053696D2100204E2F
:10037000C3A36F2100C381677561206E6F20736511
:100380006E736F72203F20006D00416C746974754C
:1003900064653A2000506109005072657373C3A30D
:1003A0006F2061746D6F736665726963613A2000D6
:1003B000C2BA43090054656D7065726174757261EB
:1003C00020424D503A2000C2BA43090054656D7076
:1003D0006572617475726120C3A16775613A20000E
:1003E000C2BA43090054656D7065726174757261BB
:1003F00020616D6269656E74653A200025090048C8
:10040000756D696461646520616D6269656E7465AE
:100410003A2000202A2A2A2056616C6F72657320C8
:100420004C69646F73202A2A2A004F657374650033
:1004300053756C004573746500506F736963616F29
:1004400020736F6C0056656C6F636964616465202E
:1004500076656E746F0053696D21004E616F2100E7
:1004600041677561206E6F2073656E736F723F0018
:10047000416C74697475646500502E2041746D6F11
:10048000736665726963610054656D702E206167E3
:1004900075610054656D702E20416D62692E2032A9
:1004A0000020250048756D696461646520416D62B6
:1004B000692E0020430054656D702E20416D622E20
:1004C00000000020002300260029002C002F00320D
:1004D00000000100000301060109010505050507EB
:1004E0000508080808020202020A0A0808040404AF
:1004F00004010101010101010103030303030303DB
:1005000003040707070C0C0C0C0C0C0C0C02020269
:100510000206060606060606060B0B0B0B0B0B0B5C
:100520000B010210202008081020401020408002FB
:100530000102010804020101020408102040808029
:1005400040201008040201800402018040201008AD
:100550000402010804020101020408102040800185
:1005600002040810204080009E1811241FBECFEF07
:10057000D1E2DEBFCDBF00E00CBF24E0A8E8B2E0CE
:1005800001C01D92A835B207E1F712E0A0E0B2E089
:10059000E4EAF4E400E00BBF02C007900D92A83833
:1005A000B107D9F712E0C5EBD2E000E006C0219711
:1005B0000109802FFE010E941D20C43BD10780E06D
:1005C0000807A9F70E94C6110C94502219CDCF92AA
:1005D000DF92EF92FF920F931F93CF93DF936C0103
:1005E0007A018B01C0E0D0E0CE15DF0589F0D8019B
:1005F0006D918D01D601ED91FC910190F081E02D7E
:10060000C6011995892B11F47E0102C02196ECCF09
:10061000C701DF91CF911F910F91FF90EF90DF9075
:10062000CF900895FC01538D448D252F30E0842F09
:1006300090E0821B930B541710F0CF96089501970A
:100640000895FC01918D828D981761F0828DDF01F4
:10065000A80FB11D5D968C91928D9F5F9F73928FB5
:1006600090E008958FEF9FEF0895FC01918D828DAA
:10067000981731F0828DE80FF11D858D90E0089577
:100680008FEF9FEF0895FC01918D228D892F90E0CF
:10069000805C9F4F821B91098F739927089586E58F
:1006A00093E0F1DF21E0892B09F420E0822F089507
:1006B000FC01848DDF01A80FB11DA35ABF4F2C91FF
:1006C000848D90E001968F739927848FA689B789CE
:1006D0002C93A089B1898C9180648C93938D848DA7
:1006E000981306C00288F389E02D80818F7D808376
:1006F0000895EF92FF920F931F93CF93DF93EC0136
:1007000081E0888F9B8D8C8D981305C0E889F989CD
:10071000808185FD23C0F62E0B8D10E00F5F1F4FEB
:100720000F731127E02E8C8DE8120BC00FB607FC5B
:10073000FACFE889F989808185FFF5CFCE01B8DF4E
:10074000F2CF8B8DFE01E80FF11DE35AFF4FF082CF
:100750000B8FEA89FB898081806207C0EE89FF895F
:100760006083E889F98980818064808381E090E0FA
:10077000DF91CF911F910F91FF90EF900895CF934C
:10078000DF93EC01888D8823C1F0EA89FB898081A1
:1007900085FD05C0A889B9898C9186FD0EC00FB66C
:1007A00007FCF5CF808185FFF2CFA889B9898C91AC
:1007B00085FFEDCFCE017CDFE8CFDF91CF910895AB
:1007C00080E090E0892B19F06ADF811125C080E07C
:1007D00090E0892B41F080E090E0892B21F00E948D
:1007E000000081111CC080E090E0892B41F080E086
:1007F00090E0892B21F00E940000811113C080E05D
:1008000090E0892BA1F080E090E0892B81F00E949C
:10081000000081110AC008950E940000D8CF0E94F4
:100820000000E1CF0E940000EACF0C940000089580
:100830003FB7F8948091D0029091D102A091D2025A
:10084000B091D30226B5A89B05C02F3F19F00196A1
:10085000A11DB11D3FBFBA2FA92F982F8827820F46
:10086000911DA11DB11DBC01CD0142E0660F771F96
:10087000881F991F4A95D1F7089521E001C0220FE2
:100880006A95EAF7DC011C962C931C971A965C93E8
:100890004E931997ED91FC910484F585E02D60E06D
:1008A0001994DC01ED91FC910684F785E02D41E07F
:1008B000199581E090E008950895089585ED80935D
:1008C000BC008091BC0084FDFCCF109232030895DF
:1008D0004091AA02262F30E0240F311D213231052C
:1008E000DCF4209132032430C9F4FC0180E090E074
:1008F000861758F43091AA022191DC01A857BD4F08
:10090000A30FB11D2C930196F3CF8091AA02680F1B
:100910006093AA0280E0089581E0089582E008953E
:100920000895E091EB028091EA02E81730F4F0E0DC
:10093000E451FD4F808190E008958FEF9FEF08957F
:100940009091EB028091EA02981750F4E92FF0E0C1
:10095000E451FD4F208130E09F5F9093EB0202C095
:100960002FEF3FEFC90108958091EA0290E02091B6
:10097000EB02821B91090895CF92DF92EF92FF92D2
:100980000F931F93CF93DF937C01262F972F8A011C
:1009900080913303882391F0C62FD72F6E01C40EA8
:1009A000D51ECC15DD0569F06991D701ED91FC915B
:1009B0000190F081E02DC7011995F3CF642F822FAC
:1009C00087DFC801DF91CF911F910F91FF90EF90CA
:1009D000DF90CF900895CF93DF931F92CDB7DEB70E
:1009E0006983209133032223D1F0209155032032D3
:1009F00040F021E030E0FC013383228380E090E08E
:100A000014C080913403E82FF0E0EB5CFC4F998137
:100A100090838F5F809334038093550304C061E01B
:100A2000CE01019655DF81E090E00F90DF91CF91EC
:100A30000895089580E090E008950E943C220F936D
:100A40001F93CF93DF93EC0188819981009729F060
:100A50002A813B812617370788F48B016F5F7F4F10
:100A60000E945821009761F0998388831B830A8331
:100A70002C813D81232B11F4FC01108281E001C007
:100A800080E0DF91CF911F910F910895CF93DF9375
:100A9000EC0188819981009711F00E94C020198291
:100AA00018821D821C821B821A82DF91CF910895C9
:100AB000EF92FF920F931F93CF93DF93EC017B0193
:100AC0008A01BA01BCDF811103C0CE01DFDF07C09C
:100AD0001D830C83B701888199810E944922CE0130
:100AE000DF91CF911F910F91FF90EF900895CF93D9
:100AF000DF93FC012381222389F0EC018181809521
:100B00006823608382810E943B0E688183EF93E0BB
:100B100062DF0E94DE0D282F30E002C020E030E0CE
:100B200081E090E0232B11F080E090E0DF91CF9105
:100B30000895EF92FF920F931F93CF938C01FC01C6
:100B4000759684E0C0E060FF02C09081C92B669575
:100B5000815031968111F7CF413011F4F801448969
:100B6000F8018585C82BC42B7801FEE0EF0EF11C3F
:100B7000F80162896C2BC701BADFF80162896095C0
:100B80006C23C701CF911F910F91FF90EF90AFCFD2
:100B90000F931F93CF93DF93062F0F70423019F4FA
:100BA00040E0602F0FC0142F262FEC0130E0B90178
:100BB00084E0759567958A95E1F7CE01BADF412FFC
:100BC000602FCE01DF91CF911F910F91B2CFFC0129
:100BD00084858823A1F0218532852115310519F4FA
:100BE000611106C007C02130310521F4611102C036
:100BF000858701C015866585CF010E9678CF08954B
:100C0000EF92FF920F931F93CF93DF93EC01FB01C1
:100C100084819581E080F1800C811D81E114F104D3
:100C2000A9F00097A9F0080F191FB801CE0107DF3E
:100C3000882361F0288139818C819D81B701820FE1
:100C4000931F0E9449221D830C8302C0CE011EDF28
:100C5000CE01DF91CF911F910F91FF90EF900895FA
:100C6000CF93DF93EC016115710551F0FB01019009
:100C70000020E9F73197AF01461B570B19DF01C080
:100C800005DFCE01DF91CF910895FC018081918134
:100C90000C94C0200F931F93CF93DF93CDB7DEB793
:100CA00029970FB6F894DEBF0FBECDBF8C01862FFB
:100CB000F80111821082138212821582148250E090
:100CC000BE016F5F7F4F90E00E949B19BE016F5F76
:100CD0007F4FC801C5DF29960FB6F894DEBF0FBE5F
:100CE000CDBFDF91CF911F910F910895CF93DF93E7
:100CF0001F921F92CDB7DEB7FC01118210821382C2
:100D000012821582148269831A82BE016F5F7F4F3F
:100D1000A7DF0F900F90DF91CF910895EF92FF9290
:100D20000F931F93CF93DF93EC01198218821B82DC
:100D30001A821D821C8261157105F9F08B01CB01AD
:100D40000E9492197C01BC01CE0179DE811108C09C
:100D5000CE01DF91CF911F910F91FF90EF9096CE32
:100D6000FD82EC82B80188819981DF91CF911F913A
:100D70000F91FF90EF900C948B19DF91CF911F9101
:100D80000F91FF90EF900895FB01DC0111961C92EA
:100D90001E9213961C921E92129715961C921E92EA
:100DA00014978617970741F060817181611571056D
:100DB00019F0448155817CCE0895FC011182108286
:100DC00013821282158214826115710549F0FB01AC
:100DD00001900020E9F73197AF01461B570B68CE11
:100DE0000895DC01ED91FC910190F081E02D1994C2
:100DF000EF92FF920F931F93CF93DF938C017B01B0
:100E0000C0E0D0E0F701EC0FFD1F6491662361F0B4
:100E1000D801ED91FC910190F081E02DC801199568
:100E2000892B11F02196EECFCE01DF91CF911F914A
:100E30000F91FF90EF9008956115710579F0FB0116
:100E400001900020E9F73197AF01461B570BDC01F9
:100E5000ED91FC910280F381E02D199480E090E007
:100E600008954F925F926F927F92EF92FF920F934D
:100E70001F93CF93DF93CDB7DEB7A1970FB6F8944A
:100E8000DEBF0FBECDBF7C01FA01CB0119A222301B
:100E900008F42AE08E010F5D1F4F422E512C612C69
:100EA000712CBF01A30192010E94DF1FF901CA0149
:100EB000015011096A3014F4605D01C0695CD80109
:100EC0006C93232B242B252B61F7B801C701B4DFCA
:100ED000A1960FB6F894DEBF0FBECDBFDF91CF91C4
:100EE0001F910F91FF90EF907F906F905F904F90C8
:100EF00008951F920F920FB60F9211240BB60F9206
:100F00002F933F934F935F936F937F938F939F9311
:100F1000AF93BF93EF93FF9386E593E0C9DBFF9117
:100F2000EF91BF91AF919F918F917F916F915F9161
:100F30004F913F912F910F900BBE0F900FBE0F90CE
:100F40001F9018951F920F920FB60F9211240BB697
:100F50000F922F938F939F93EF93FF93E0916603EC
:100F6000F09167038081E0916C03F0916D0382FD45
:100F700012C0908180916F038F5F8F7320917003F7
:100F8000821751F0E0916F03F0E0EA5AFC4F958F21
:100F900080936F0301C08081FF91EF919F918F91AA
:100FA0002F910F900BBE0F900FBE0F901F901895B2
:100FB00090E0FC013197E231F10508F04EC088273E
:100FC000EE58FF4F8F4F0C941D20809180008F773B
:100FD00003C0809180008F7D809380000895809170
:100FE0008000877FF9CF84B58F7702C084B58F7D6D
:100FF00084BD08958091B0008F7703C08091B000C8
:101000008F7D8093B0000895809190008F7707C006
:10101000809190008F7D03C080919000877F8093A6
:10102000900008958091A0008F7707C08091A00064
:101030008F7D03C08091A000877F8093A0000895DA
:10104000809120018F7707C0809120018F7D03C0A0
:1010500080912001877F8093200108951F93CF9373
:10106000DF93282F30E0F901E751FD4F8491F9011A
:10107000EF5DFA4FD491F901E552FB4FC491CC23B7
:10108000C1F0162F811194DFEC2FF0E0EE0FFF1F5F
:10109000E256FD4FA591B4918FB7F894111105C098
:1010A0009C91ED2FE095E92302C0EC91ED2BEC93A0
:1010B0008FBFDF91CF911F910895CF93DF9390E081
:1010C000FC01EF5DFA4F2491FC01E552FB4F849146
:1010D000882361F190E0880F991FFC01EC57FD4FC8
:1010E000C591D491FC01E256FD4FA591B4916111D7
:1010F00009C09FB7F8948881209582238883EC915A
:101100002E230BC0623061F49FB7F8943881822F90
:10111000809583238883EC912E2B2C939FBF06C050
:101120008FB7F894E8812E2B28838FBFDF91CF9162
:101130000895863308F0865390917B00282F2870FD
:10114000977F922B90937B008770806480937C00C4
:1011500080917A00806480937A0080917A0086FD85
:10116000FCCF809178002091790090E0922B089537
:101170008F929F92AF92BF92CF92DF92EF92FF92A7
:101180006B017C0155DB4B015C01C114D104E1040E
:10119000F104E9F04DDBDC01CB0188199909AA09BA
:1011A000BB09883E9340A105B10578F321E0C21A3E
:1011B000D108E108F10888EE880E83E0981EA11C92
:1011C000B11CC114D104E104F10421F7DECFFF907A
:1011D000EF90DF90CF90BF90AF909F908F90089549
:1011E0001F920F920FB60F9211242F933F938F935C
:1011F0009F93AF93BF938091500490915104A0911D
:101200005204B09153043091CF0223E0230F2D37C5
:1012100020F40196A11DB11D05C026E8230F0296FA
:10122000A11DB11D2093CF028093500490935104CF
:10123000A0935204B09353048091D0029091D102B4
:10124000A091D202B091D3020196A11DB11D80934D
:10125000D0029093D102A093D202B093D302BF9157
:10126000AF919F918F913F912F910F900FBE0F9053
:101270001F901895DC01ED91FC910684F785E02D17
:1012800040E0199461E0F6DF8BE39FE10197F1F70D
:1012900008950F931F93CF93DF93EC01423018F022
:1012A0008C8188608C834F836887222329F04130AA
:1012B00019F48C8184608C8364E670E080E090E0B7
:1012C00057DF6C8164FD31C0E881F9810684F785C0
:1012D000E02D42E063E0CE0119958BE496E401979E
:1012E000F1F7E881F9810684F785E02D42E063E0BB
:1012F000CE01199503E512E0C8010197F1F7E881E5
:10130000F9810684F785E02D42E063E0CE0119956E
:10131000C8010197F1F7E881F9810684F785E02D8E
:1013200042E062E0CE01199514C06062CE01A2DFF6
:101330008BE496E40197F1F76C816062CE019ADF4D
:1013400003E512E0C8010197F1F76C816062CE01FC
:1013500091DFC8010197F1F76C816062CE018ADFED
:101360008BEE90E00197F1F784E08D836CE0CE0185
:1013700081DFCE0187DF82E08E8366E0CE017ADFF7
:10138000E881F9810484F585E02D6FEFCE01DF91CE
:10139000CF911F910F9119941F920F920FB60F9238
:1013A00011240BB60F922F933F934F935F936F933C
:1013B0007F938F939F93AF93BF93EF93FF9380910E
:1013C000B900887F803609F49CC068F5883209F43A
:1013D0005BC090F4803109F454C038F4882309F4D8
:1013E000F6C0883009F44DC0F5C0883109F44CC00E
:1013F000803209F45DC0EEC0803409F468C048F45E
:10140000803309F455C0883309F0E4C08093300379
:10141000D8C0803509F44FC0883509F45DC08834E0
:1014200009F0D8C0D6C0883909F4C7C0A8F48837F5
:1014300009F467C038F4883609F463C0803709F4CA
:1014400060C0C8C0883809F4B8C0803909F45FC0EA
:10145000803809F0BFC05BC0803B09F486C038F417
:10146000803A09F466C0883A09F47FC0B3C0803C72
:1014700009F4A7C0883C09F4A4C0883B09F48AC0D9
:10148000A9C080910D0310C090912F0380912E036D
:10149000981770F5E0912F0381E08E0F80932F0352
:1014A000F0E0E25FFC4F80818093BB0085EC86C05A
:1014B000809330038EC0E0912F0381E08E0F8093E4
:1014C0002F038091BB00F0E0E25FFC4F808390919E
:1014D0002F0380912E036EC0E0912F0381E08E0FC9
:1014E00080932F038091BB00F0E0E25FFC4F80838C
:1014F0008091310381116DC081E080930C0384EAF7
:1015000061C083E0809332031092CE02CFCF8091EE
:10151000CE02803208F051C0E091CE0281E08E0F01
:101520008093CE028091BB00F0E0E255FD4F8083B6
:10153000BDCF85EC8093BC00109232038091CE0227
:10154000803230F4E091CE02F0E0E255FD4F10829F
:101550006091CE0270E0E091AC02F091AD028EEAB3
:1015600092E019951092CE0235C084E08093320348
:101570001092AB021092AA02E091A802F091A90287
:1015800019958091AA02811105C081E08093AA0279
:1015900010928802E091AB0281E08E0F8093AB0243
:1015A000F0E0E857FD4F80818093BB009091AB0243
:1015B0008091AA02981708F479CF85E88093BC003F
:1015C00009C085EC8093BC001092320303C01092D6
:1015D000300374D9FF91EF91BF91AF919F918F919B
:1015E0007F916F915F914F913F912F910F900BBE23
:1015F0000F900FBE0F901F9018951092320381E04C
:101600008093310310920C0361E084E127DD61E0F7
:1016100085E124DDE9EBF0E080818E7F80838081AD
:101620008D7F808388E48093B80085E48093BC003C
:101630000895FF920F931F93CF93DF93EC01162F22
:10164000042FF22E8B85888B1092EB021092EA0207
:101650001092340310925503D0DF88890CD3AED298
:1016600091E0811190E0998B992321F083EF93E031
:1016700067D98E878989882331F01F861C8260E0B4
:10168000CE010E9634DA2F2D402F612FCE01DF913F
:10169000CF911F910F91FF90FCCD9091320391114A
:1016A000FCCF813208F080E291E090933203909376
:1016B00031032FEF2093300310922F03280F209334
:1016C0002E0390930D0390910D039E6E90930D0346
:1016D00090910C03913061F410920C0390910D03E2
:1016E0009093BB009091BC0093FDF8CF95EC01C0A6
:1016F00095EE9093BC00909132039130E1F390917C
:101700002F03981710F480912F03AEE0B3E02CEE76
:1017100032E0F9019E2F921B981718F49D91919336
:10172000F9CF1092EB028093EA020895CF93DF93F2
:10173000CDB7DEB728970FB6F894DEBF0FBECDBF8A
:101740001D8290E49E8324E12F8324E5288719825B
:101750009A8390E19B8390E59C83209106048217F5
:1017600010F08FEF820F3091070490E0FE01E80F38
:10177000F91F303121F4243011F4618101C06581F9
:1017800060688FEF93E028960FB6F894DEBF0FBE27
:10179000CDBFDF91CF916ECDFC0144815581608139
:1017A00071818FEF93E00C94E702CF92DF92EF927A
:1017B000FF920F931F93CF93DF936B01770FEE0888
:1017C000FF08F7FE19C0EC016DE20BDB8C0144272A
:1017D0005527BA014C195D096E097F092AE0CE012F
:1017E00040DB800F911FDF91CF911F910F91FF90F0
:1017F000EF90DF90CF9008952AE0B701A601DF9126
:10180000CF911F910F91FF90EF90DF90CF9029CB58
:10181000CF93DF93BC0186E593E0EADAEC0160E563
:1018200072E086E593E008DB8C0F9D1FDF91CF917E
:1018300008954F925F926F927F928F929F92AF9294
:10184000BF92CF92DF92EF92FF926B017C01B42E98
:101850009B01AC010E94B31E882319F06BE772E074
:1018600027C026013701E89477F82FEF3FEF4FE7C5
:101870005FE7C301B2010E94B31E81110DC02FEFBB
:101880003FEF4FE75FE7C301B2010E94331C181618
:101890001CF46FE772E00CC02FEF3FEF4FE75FE4FF
:1018A000C701B6010E94631E18168CF463E872E04B
:1018B00086E593E0FF90EF90DF90CF90BF90AF90E0
:1018C0009F908F907F906F905F904F90B5CA2FEF51
:1018D0003FEF4FE75FECC701B6010E94331C87FD65
:1018E000E5CF20E030E0A901C701B6010E94331C1A
:1018F00087FF0AC06DE286E593E073DA4C01F7FAE0
:10190000F094F7F8F09402C0812C912CA12C60E0A7
:1019100070E080E09FE3AB1441F020E030E040E273
:1019200051E40E94CA1DA394F6CF9B01AC01C701EC
:10193000B6010E94661D2B013C010E94371E6B01FF
:101940007C010E94371C9B01AC01C301B2010E94C3
:10195000651D2B013C012AE0B701A60186E593E055
:1019600080DA7C01E80CF91CBB2031F06EE286E5E0
:1019700093E037DAE80EF91EDB2CDD2029F120E0B8
:1019800030E040E251E4C301B2010E94981C2B01F7
:101990003C010E94371E4B01A12CB12C2AE0B5015D
:1019A000A40186E593E05DDAE80EF91EC501B401F5
:1019B0000E94371C9B01AC01C301B2010E94651D4E
:1019C0002B013C01DA94D9CFC701FF90EF90DF9053
:1019D000CF90BF90AF909F908F907F906F905F90CF
:1019E0004F90089580914104E0914204F0914304A6
:1019F000F8949181982B91832281982F9095292397
:101A00002283A7E0B0E01197F1F72181922391831F
:101A1000A3E2B0E01197F1F790817894EFECF0E059
:101A20003197F1F7982381E009F480E008959091CF
:101A30004104E0914204F0914304392F309580FF36
:101A400013C0F8942281832F822382838181892B82
:101A50008183A3E2B0E01197F1F78281982B928302
:101A6000789487ED90E012C0F8942281832F82232E
:101A700082838181892B8183AFEFB0E01197F1F7E9
:101A80008281982B928378948FE090E00197F1F710
:101A90000895EF92FF920F931F93CF93DF931F92BE
:101AA000CDB7DEB7082F88E0E82EF12C11E081E0F9
:101AB000912F902309F480E06983B9DF110F81E051
:101AC000E81AF1086981E114F10489F7611113C082
:101AD000F894E0914204F091430491818091410493
:101AE000809598239183E0914204F0914304928180
:101AF0008923828378940F90DF91CF911F910F916A
:101B0000FF90EF900895EF92FF920F931F93CF9362
:101B1000DF931F92CDB7DEB7182F60E085E599837C
:101B2000B8DFE12E9981F92E8701085F1F4F60E031
:101B3000F70181917F01ADDFE016F106C1F70F904B
:101B4000DF91CF911F910F91FF90EF9008959091A9
:101B50004104E0914204F0914304F8948181292FDB
:101B600020958223818378948DE743E050E0815073
:101B700021F1DA011197F1F730813923C1F3F8949B
:101B80008281822382838181892B81837894ABE750
:101B9000B7E01197F1F7F894818128232183A3E11D
:101BA000B1E01197F1F78081982381E009F080E09E
:101BB0007894E3E6F6E03197F1F708952091550324
:101BC00090914F04213208F04AC080913203811174
:101BD000FCCF32E03093320331E0309331033FEFFA
:101BE0003093300310922F0320932E03A5E3B3E02C
:101BF0004EE053E0FA013E2F341B321718F43D91AA
:101C00003193F9CF10920D0320910D03990F922B70
:101C100090930D0390910C03913061F410920C039A
:101C200090910D039093BB009091BC0093FDF8CF71
:101C300095EC01C095EE9093BC00909132039230E8
:101C4000E1F3909130039F3F79F08091300380322F
:101C500041F080913003803331F084E005C081E0B1
:101C600003C082E001C083E0109234031092550358
:101C700010923303089591E09093330380934F04BF
:101C8000109234031092550308951F93CF93DF935E
:101C90001F92CDB7DEB7682F87E76983ECDF6981D4
:101CA00083EF93E00E94EB0489DF87E7E4DF81E0C4
:101CB00090E0F3DC83EF93E00E94A004182F7EDF16
:101CC000812F0F90DF91CF911F9108950F931F9354
:101CD000CF93DF931F92CDB7DEB7682F87E7698375
:101CE000CADF698183EF93E00E94EB0467DF87E737
:101CF000C2DF82E090E0D1DC83EF93E00E94A00499
:101D000000E010E0182F83EF93E00E94A004082B5E
:101D1000192B54DFC8010F90DF91CF911F910F91C4
:101D2000089587E7A8DF64EF83EF93E00E94EB0458
:101D30006EE283EF93E00E94EB0440DF65E070E029
:101D400080E090E015DA86EFC1CF8F929F92AF923C
:101D5000BF92CF92DF92EF92FF92CF93DF93A09149
:101D60003604882311F03A2F01C030E08091370407
:101D700090E0880F991F8F539B4FC0903C04D090E8
:101D80003D04E0903E04F0903F0440E050E0BA0192
:101D9000FC01C591D49128812A2323130FC04A0145
:101DA0005B012FEF821A920AA20AB20A4C155D0556
:101DB0006E057F0538F4B501A401EACF342F252F35
:101DC000CB0104C030E020E080E090E0632F722F70
:101DD000DF91CF91FF90EF90DF90CF90BF90AF90C9
:101DE0009F908F9008953F924F925F926F927F9253
:101DF0008F929F92AF92BF92CF92DF92EF92FF921B
:101E00000F931F93CF93DF93CDB7DEB728970FB60D
:101E1000F894DEBF0FBECDBF84DF6C01E12CF12C46
:101E2000109118041295110F110F107C1C5C87E79C
:101E300022DF64EF83EF93E00E94EB04612F83EFD6
:101E400093E00E94EB04BADE80911804811105C072
:101E500065E070E080E090E012C0813029F468E035
:101E600070E080E090E00BC0823029F46EE070E01A
:101E700080E090E004C06AE170E080E090E078D912
:101E800086EF24DF4C01A12CB12CBA2CA92C982C64
:101E9000882488EFFADE882A3090180480912D0477
:101EA00090912E04A7019601281B390B4109510975
:101EB000A0912B04B0912C040E944C1D6B017C015D
:101EC000AFE0F594E794D794C794AA95D1F76091C1
:101ED000250470912604CB01770FAA0BBB0BBC0124
:101EE000CD01BBE0660F771F881F991FBA95D1F708
:101EF00020912704309128048901330F220B330BE2
:101F0000A90198012C0D3D1D4E1D5F1D0E94012051
:101F1000C20ED31EE41EF51E20EAC21A2FE0D20A1A
:101F2000E108F108A7019601C701B6010E94D01F80
:101F30009B01AC011CE055954795379527951A955F
:101F4000D1F729833A834B835C8300911904109164
:101F50001A04A0911D04B0911E04A70196010E94CD
:101F600025202B013C018DE075946794579447948C
:101F70008A95D1F7A0911F04B091200429813A815C
:101F80004B815C810E942520BB2797FDB095AB2F2C
:101F9000840D951DA61DB71D0296A11DB11D32E031
:101FA000B595A795979587953A95D1F79C01AD0181
:101FB00030584F4F5F4FA0912904B0912A040E94DE
:101FC0004C1D2B013C014FE0769467945794479445
:101FD0004A95D1F788E090E083199109A501940111
:101FE00004C056954795379527958A95D2F72D8346
:101FF0003E834F8358874801110FAA08BB0852E05F
:10200000880C991CAA1CBB1C5A95D1F7A0912104DD
:10201000B091220429813A814B815C810E94252064
:102020009B01AC016BE055954795379527956A95CF
:10203000D1F729833A834B835C83A0911B04B09131
:102040001C04A70196010E942520DC01CB017BE046
:10205000B595A795979587957A95D1F729813A8176
:102060004B815C81820F931FA41FB51F880D991DA2
:10207000AA1DBB1D032C04C0880F991FAA1FBB1FDC
:102080000A94D2F7BC01CD016E5F7F4F8F4F9F4FF7
:1020900024E030E040E050E00E9401208D819E81EC
:1020A000AF81B885821B930BA40BB50B9C01AD01CE
:1020B00080E593ECA0E0B0E0BC01CD0104C09695B2
:1020C0008795779567953A94D2F70E94D01F97FD30
:1020D0000BC0660F771F881F991FA30192010E94F2
:1020E000DF1F69017A010AC0A30192010E94DF1F6C
:1020F00069017A01CC0CDD1CEE1CFF1C9927F7FC52
:102100009A958F2D7E2D6D2D9B01AC010E94D01FC5
:102110009B01AC01AEEDBBE00E944C1D4C01BB2409
:1021200097FCB094AB2CA3E4B3EEA70196010E94F8
:102130002720BB2797FDB095AB2F880D991DAA1DB1
:10214000BB1D8153914FAF4FBF4F44E0B595A7954D
:10215000979587954A95D1F7BC01CD016C0D7D1DF2
:102160008E1D9F1D28960FB6F894DEBF0FBECDBF03
:10217000DF91CF911F910F91FF90EF90DF90CF9063
:10218000BF90AF909F908F907F906F905F904F9097
:102190003F900895CF92DF92EF92FF920F931F939B
:1021A000CF93DF93CDB7DEB7C054D1400FB6F894CC
:1021B000DEBF0FBECDBF2FB7F89480915004909131
:1021C0005104A0915204B09153042FBF40913804A0
:1021D0005091390460913A0470913B048C019D0147
:1021E000041B150B260B370BB901A801403D5740C6
:1021F0006105710518F480914004B8C080933804DB
:1022000090933904A0933A04B0933B0410923304A2
:1022100010923204109231041092300410922F0464
:1022200061E0809134040E942E086AEF70E080E043
:1022300090E00E94B80861E0809134040E945D083B
:1022400060E0809134040E942E0864E170E080E038
:1022500090E00E94B808F89461E0809134040E94F4
:102260002E088BE990E00197F1F762E08091340449
:102270000E945D0883E290E00197F1F780E065DD60
:10228000672B682B692B21F41092400478943BC093
:1022900081E05BDD672B682B692BB1F38E010F5F4B
:1022A0001F4F6E012FEBC21A2EEFD20A780180E089
:1022B0004CDDF701608371838283938381E045DD88
:1022C000F7016483758386839783F8E0EF0EF11C32
:1022D000EC14FD0461F7789420E030E0F8014081CF
:1022E000518162817381C480D580E680F780411579
:1022F00051056105710529F0C114D104E104F1040F
:1023000021F41092400480E031C0F90183E0F5959A
:10231000E7958A95E1F7E15DFB4F8081880F4C15C9
:102320005D056E057F0508F4816080832F5F3F4F58
:10233000085F1F4F2832310589F62091330430E0C1
:1023400040912F048091300490E0840F911D4091C2
:102350003104840F911D40913204840F911D9927FF
:102360002817390771F681E080934004C05CDE4F86
:102370000FB6F894DEBF0FBECDBFDF91CF911F9196
:102380000F91FF90EF90DF90CF900895CF93DF9360
:10239000CDB7DEB7E6970FB6F894DEBF0FBECDBF60
:1023A000789484B5826084BD84B5816084BD85B530
:1023B000826085BD85B5816085BD80916E0081603C
:1023C00080936E00109281008091810082608093E2
:1023D00081008091810081608093810080918000E4
:1023E0008160809380008091B10084608093B1000F
:1023F0008091B00081608093B000809191008260F4
:1024000080939100809191008160809391008091F0
:1024100090008160809390008091A1008260809301
:10242000A1008091A10081608093A1008091A00013
:1024300081608093A00080912101826080932101BE
:102440008091210181608093210180912001816030
:102450008093200180917A00846080937A0080913B
:102460007A00826080937A0080917A008160809304
:102470007A0080917A00806880937A001092C1007F
:10248000E0916603F091670382E08083E09162034C
:10249000F09163031082E0916403F09165038FEC87
:1024A000808310926E03E0916A03F0916B0386E0E3
:1024B0008083E0916803F09169038081806180836B
:1024C000E0916803F0916903808188608083E091E6
:1024D0006803F0916903808180688083E0916803DC
:1024E000F091690380818F7D808362E08091340464
:1024F0000E945D0880E398EFAFEFBFEF8093380450
:1025000090933904A0933A04B0933B0483E0809302
:1025100018041092EB021092EA0210923403109207
:1025200055036BD880EDB1DB853509F042C08AEAEE
:10253000CDDB90931A04809319048CEAC7DB909347
:102540001C0480931B048EEAC1DB90931E048093CD
:102550001D0480EBBBDB90932A048093290482EB5B
:10256000B5DB90932C0480932B0484EBAFDB90932A
:102570002E0480932D0486EBA9DB90932004809396
:102580001F0488EBA3DB90932204809321048AEB41
:102590009DDB90932404809323048CEB97DB909332
:1025A0002604809325048EEB91DB9093280480937E
:1025B000270420E042E060E18FEF93E03AD860E04A
:1025C00089E20E945D0861E08DE20E945D0880E082
:1025D000ADD868EB72E08FEF93E00E94F8067E01C1
:1025E00022E2E20EF11C6E018AE2C80ED11C67E005
:1025F000962E9E0C5E019AE0A90EB11C80914E04AD
:102600008111CEC0A4DA882309F4CAC060E080EF4B
:1026100040DA01E0712C612C11E0E4D98EABE2D9F3
:102620009EA9913019F48130C1F434C0272D30E0D7
:1026300098131DC080914C04181738F4F901EF5B12
:10264000FB4F8381802349F402C0181731F090E0DA
:10265000193060F410934D0409C0E72DF0E0EF5BF2
:10266000FB4F8381802B838391E009C0612EF901A8
:10267000EF5BFB4F2381802F809582238383892FFB
:10268000D6D91F5F000F11F4739401E0E7E0E7155E
:1026900008F0C3CF113408F483C060924C04611079
:1026A00003C081E080934E0480914404882309F4A0
:1026B00077C0A4E4B4E0F7018D918193EC15FD059A
:1026C000D9F7D701E0E09A1689F08D918E27E82F8F
:1026D000EF70F0E0E753FD4F949182958F70E82FF3
:1026E000F0E0E752FD4FE491E927EDCF89A5E81727
:1026F00049F06EE372E086E593E00E941C0760E516
:1027000072E007C08AA1803149F0883239F063E570
:1027100072E086E593E00E941C074FC018DAC701FB
:10272000F2D961E084E4B5D912DAC701ECD960E0EE
:102730008EEBAFD9CE0101962C0158E0652E712C9D
:1027400001E010E04FD98111102B000F91E0691AC0
:102750007108C1F7F20111932F01EA15FB0569F722
:1027600010924C0410924E0410924D04ECE4F4E0EC
:10277000129224E0E434F207D9F76A8170E0762FF0
:1027800066278981682B072E000C880B990B0E9405
:10279000391C20E030E040E85DE30E94981C11C045
:1027A00010924C0410924E0410924D04ECE4F4E0AC
:1027B000129224E0E434F207D9F760E070E08AE78F
:1027C00094EC6093E0027093E1028093E2029093B4
:1027D000E302E0DC8823A1F1809135048B3041F1E4
:1027E00078F18551823060F560912F0470E080E0CF
:1027F00090E00E94371C20E030E040E853E40E9463
:10280000981C2B013C0180913004682F70E080E01F
:1028100090E00E94391C9B01AC01C301B2010E94EF
:10282000661D2DEC3CEC4CEC5DE30E94981C0CC04A
:1028300060912F0470E080E090E00E94371C04C09B
:1028400060E070E080EC9FE70E94321E6093E80237
:10285000A1DC8823B1F1809135048B3029F088F117
:102860008551823040F02DC06091310470E080E0ED
:1028700090E0FDD72AC010913104612F6F7770E08E
:1028800080E090E0F6D720E030E040E853E40E949A
:10289000981C2B013C016091320470E080E090E0D4
:1028A000E8D79B01AC01C301B2010E94661D2DEC6B
:1028B0003CEC4CEC5DE30E94981C17FF06C090585E
:1028C00004C060E070E080EC9FE70E94321E6093DD
:1028D000E90227DAAC0160E070E080912D0490916C
:1028E0002E049A01AB01281B390B41095109A09113
:1028F0002B04B0912C040E944C1D2B013C019FE045
:1029000075946794579447949A95D1F760912504EC
:1029100070912604CB01770FAA0BBB0BBC01CD0134
:102920002BE0660F771F881F991F2A95D1F72091FA
:102930002704309128048901330F220B330BA9019E
:102940009801240D351D461D571D0E940120D301FD
:10295000C201820F931FA41FB51F0896A11DB11DB0
:10296000BC01CD0134E095958795779567953A95AB
:10297000D1F77FD720E030E040E251E40E94CA1D49
:102980006093E4027093E5028093E6029093E7027D
:102990002ADA7093DF026093DE0225DA6AD720E834
:1029A00036EE45EC57E40E94CA1D21E03EED42E4BC
:1029B0005EE30E94671E9B01AC0160E070E080E86E
:1029C0009FE30E94651D20E03AE24DE257E4B0D754
:1029D0000E94321E7093DD026093DC02E2E1F3E0BC
:1029E0008491EAE4F5E00491E4E0F5E01491112328
:1029F00079F081110E94D807E12FF0E0EE0FFF1F60
:102A0000EF53FB4FA591B491EC91E02381E009F4E1
:102A100080E081708093DB028FB7F894409050047F
:102A20005090510460905204709053048FBFD301B2
:102A3000C20100E010E084199509A609B709893898
:102A40009341A105B1051CF586E30E9499088132E6
:102A5000E3E09E073CF48032934039F0011104C05A
:102A60001F5F02C000E001C001E062E370E080E0AF
:102A700090E00E94B8082FB7F8948091500490918C
:102A80005104A0915204B09153042FBFD4CF8CE0D5
:102A9000189F102D11241093DA0287E30E949908E1
:102AA0009093D9028093D80288E30E94990890936A
:102AB000D7028093D60289E30E9499089093D502A9
:102AC0008093D40283E194E00E94080C6FEF73E0DE
:102AD00086E593E00E94F8064091E80250E060E04D
:102AE00070E02AE086E593E00E9431078CEF93E0E6
:102AF0000E94080C65EE73E086E593E00E94F806FC
:102B00004091E90250E060E070E02AE086E593E061
:102B10000E94310780EE93E00E94080C6CEC73E099
:102B200086E593E00E94F8066091E0027091E10270
:102B30008091E2029091E30242E00E94190C87EC3E
:102B400093E00E94080C65EB73E086E593E00E9439
:102B5000F8066091E4027091E5028091E60290919E
:102B6000E70242E00E94190C80EB93E00E94080CFF
:102B700069E973E086E593E00E94F8064091DE0281
:102B80005091DF0260E070E02AE086E593E00E9469
:102B9000310785E993E00E94080C6AE873E086E556
:102BA00093E00E94F8066091DC027091DD0286E5F8
:102BB00093E00E94D50B88E893E00E94080C65E73B
:102BC00073E086E593E00E94F8068091DB028111B4
:102BD00005C08EE693E00E94080C12C089E693E0DF
:102BE0000E94080C61E08DE20E942E0862E370E012
:102BF00080E090E00E94B80860E08DE20E942E081C
:102C000066E573E086E593E00E94F8064091DA02FB
:102C100050E060E070E02AE086E593E00E94310732
:102C200081E593E00E94080C6EE373E086E593E093
:102C30000E94F8068091D8029091D9022091D60284
:102C40003091D702821793075CF42091D40230911F
:102C5000D5028217930724F489E393E00E94080CBD
:102C60008091D6029091D7022091D8023091D9025A
:102C7000821793075CF42091D4023091D502821719
:102C8000930724F485E393E00E94080C8091D4021A
:102C90009091D5022091D8023091D90282179307E2
:102CA0005CF42091D6023091D7028217930724F466
:102CB0008FE293E00E94080C8FEF93E00E9442099C
:102CC00080E00E94960B66EB74E08FEF93E00E9429
:102CD000F80681E00E94960B63EB74E0CE0101964A
:102CE0000E948E066FEDC7010E9476064AE0609151
:102CF000E902CE01C0960E944A06BE01605D7F4F88
:102D0000C6010E94C406B701C6010E940006BE01AA
:102D10006F5F7F4F0E9400060E94CC0BC6010E948D
:102D20004506CE01C0960E944506C7010E94450691
:102D3000CE0101960E94450668EE73E080E090E0C7
:102D40000E94B8088FEF93E00E94420980E00E9441
:102D5000960B64EA74E08FEF93E00E94F80681E03E
:102D60000E94960B61EA74E0CE0101960E948E06E5
:102D70004AE06091E802C6010E944A06B601C70116
:102D80000E94C406BE016F5F7F4FC7010E9400060C
:102D90000E94CC0BC7010E944506C6010E94450651
:102DA000CE0101960E94450668EE73E080E090E057
:102DB0000E94B8088FEF93E00E94420980E00E94D1
:102DC000960B63E974E08FEF93E00E94F80681E0D0
:102DD0000E94960B6CE672E0C7010E94DD066FED63
:102DE000C6010E9476066091E4027091E50280912E
:102DF000E6029091E70219AA18AA1BAA1AAA1DAA0C
:102E00001CAA8E010F5F1F4F22E044E065D2BC0177
:102E1000CE01C0960E943006BE01605D7F4FC801A2
:102E20000E94C406B601C8010E940006B7010E94B4
:102E300000060E94CC0BC8010E944506CE01C09638
:102E40000E944506C6010E944506C7010E9445062C
:102E500068EE73E080E090E00E94B8088FEF93E0A6
:102E60000E94420980E00E94960B68E874E08FEFB0
:102E700093E00E94F80681E00E94960B6CE672E0F7
:102E8000C7010E94DD066FEDC6010E9476066091C3
:102E9000E0027091E1028091E2029091E30219AAAE
:102EA00018AA1BAA1AAA1DAA1CAA22E044E014D23E
:102EB000BC01CE01C0960E943006BE01605D7F4F0E
:102EC000C8010E94C406B601C8010E940006B701ED
:102ED0000E9400060E94CC0BC8010E944506CE014C
:102EE000C0960E944506C6010E944506C7010E9481
:102EF000450668EE73E080E090E00E94B8088FEF2E
:102F000093E00E94420980E00E94960B69E774E01A
:102F10008FEF93E00E94F80681E00E94960B6FE627
:102F200072E0C7010E94DD068091DE029091DF020F
:102F30001BA61AA61DA61CA61FA61EA64AE0B8011F
:102F400004D2B801C6010E943006B601C8010E9431
:102F5000C406B701C8010E9400060E94CC0BC8013C
:102F60000E944506C6010E944506C7010E9445060B
:102F700068EE73E080E090E00E94B8088FEF93E085
:102F80000E94420980E00E94960B60E774E08FEF98
:102F900093E00E94F80681E00E94960B6091DC02AB
:102FA0007091DD028FEF93E00E94D50B63E772E032
:102FB0008FEF93E00E941C0768EE73E080E090E0E2
:102FC0000E94B8088FEF93E00E94420980E00E94BF
:102FD000960B60E674E08FEF93E00E94F80681E0C4
:102FE0000E94960B8091DB02811103C06BE574E0B7
:102FF00002C066E574E08FEF93E00E94F80668EE89
:1030000073E080E090E00E94B8088FEF93E00E94A8
:10301000420980E00E94960B65E474E08FEF93E034
:103020000E94F80681E00E94960B66E772E0CE01EE
:1030300001960E94DD064AE06091DA02C6010E9414
:103040004A06B601C7010E94C406BE016F5F7F4FEA
:10305000C7010E9400060E94CC0BC7010E944506D2
:10306000C6010E944506CE0101960E94450668EE03
:1030700073E080E090E00E94B8088FEF93E00E9438
:10308000420980E00E94960B69E374E08FEF93E0C1
:103090000E94F80681E00E94960B8091D8029091E0
:1030A000D9022091D6023091D702821793076CF48F
:1030B0002091D4023091D5028217930734F464E34F
:1030C00074E08FEF93E00E94F8068091D602909111
:1030D000D7022091D8023091D902821793076CF45D
:1030E0002091D4023091D5028217930734F460E323
:1030F00074E08FEF93E00E94F8068091D4029091E3
:10310000D5022091D8023091D902821793076CF42E
:103110002091D6023091D7028217930734F46AE2E5
:1031200074E08FEF93E00E94F80668EE73E080E0B1
:1031300090E00E94B8080E94E00360CA1092590310
:103140001092580388EE93E0A0E0B0E080935A0319
:1031500090935B03A0935C03B0935D032AE032E09D
:10316000309357032093560325EC30E030936303EC
:103170002093620324EC30E03093650320936403D2
:1031800020EC30E0309367032093660321EC30E0BD
:10319000309369032093680322EC30E030936B0393
:1031A00020936A0326EC30E030936D0320936C0388
:1031B00010926F03109270031092710310927203B9
:1031C0001092F6031092F5038093F7039093F8039F
:1031D000A093F903B093FA038CE192E09093F40387
:1031E0008093F30360E081E20E945D08E2E4F5E091
:1031F000E491E0934104ECEFF4E0E491F0E0EE0FB1
:10320000FF1FEF53FB4F859194919093430480935C
:10321000420410924C0410924E0410924D04ECE4BF
:10322000F4E0129284E0E434F807D9F785E2809361
:1032300034048BE080933504E6E4F5E0E491E09318
:103240003604E0E0F5E0E491E093370480E89EE3A3
:10325000A0E0B0E080933C0490933D04A0933E0432
:10326000B0933F0410920204109201048EE292E0A7
:10327000909300048093FF0310920F048FEF8093CC
:103280000E0410920D041092100487E280930A0439
:1032900010920B0410920C0410920904109208046E
:1032A00084E08093110482E08093120481E0809393
:1032B000130480E18093140480E28093150480E479
:1032C0008093160480E88093170440E050E063E0A8
:1032D0008FEF93E00C943D04EF920F931F93CF93E5
:1032E000DF93E80147FD02C034E001C034E1E42F80
:1032F000440FFF0BF7FF03C0F195E195F109E32EB1
:10330000022F2E2FAE013AD0CE01DF91CF911F9127
:103310000F91EF900895FB01DC0105900D920020C4
:10332000E1F70895FC0105900020E9F7809590955C
:103330008E0F9F1F08954532510518F4423008F052
:1033400004C0FB011082CB010895BB27FB01552768
:10335000AA27880F991FAA1FA41710F0A41B8395F2
:103360005051B9F7A05DAA3308F0A95DA193009769
:1033700079F7B111B1931192CB0165C24F925F926F
:103380006F927F929F92AF92BF92CF92DF92EF9215
:10339000FF920F931F93CF93DF93CDB7DEB729979B
:1033A0000FB6F894DEBF0FBECDBF6A01122FB02E4C
:1033B0002BE3201720F0FF24F394F00E02C0BCE3AF
:1033C000FB2E0F2D27E0AE014F5F5F4F64D1AC01A4
:1033D0008981982F9970913031F0E1FC06C0E0FEB0
:1033E00006C090E205C09DE203C09BE201C090E0F0
:1033F000EE2DE07183FF3CC0911102C083E001C05B
:1034000084E0811718F4212F281B01C020E0E1116E
:103410000BC0F601822F30E2882319F031938150DE
:10342000FBCFC20ED11C20E0992329F0D6019C933A
:10343000F60131966F01C6010396E2FE0AC03EE432
:10344000D6013C9341E411964C93119712963C930C
:1034500006C03EE6F601308341E641833283FC013B
:10346000322F40E2332309F442C041933150FACF66
:1034700082FF44C0911102C083E001C084E0811743
:1034800018F4212F281B01C020E0E1110BC0F60128
:10349000822F30E2882319F031938150FBCFC20E86
:1034A000D11C20E0992329F0D6019C93F601319696
:1034B0006F01C6010396E2FE0BC039E4D6013C93CE
:1034C0003EE411963C93119736E412963C9307C064
:1034D00039E6F60130833EE6318336E63283FC017D
:1034E000322F40E2332319F041933150FBCFFC01DE
:1034F000E20FF11D10828EEF9FEFB7C0F1E0911146
:1035000001C0F0E06F2F70E01416150624F49A0144
:103510002F5F3F4F02C021E030E0260F371FBB2056
:1035200029F06B2D70E06F5F7F4F02C060E070E0AC
:10353000260F371F612F70E0261737071CF4121B68
:10354000212F01C020E03E2D387159F4D601322FD1
:1035500060E2332319F06D933150FBCFC20ED11CC2
:1035600020E0FF2331F0D6019C93B6016F5F7F4FBF
:103570006B01E1110BC0F601922F30E3992319F092
:1035800031939150FBCFC20ED11C20E09F2D940FA0
:103590003A81782F7071A72E84FF03C0313309F46C
:1035A0009150191624F4993018F098E001C091E078
:1035B000E42F852F57FF02C0E0E080E06E2F782FC8
:1035C000E0E0F0E0AEE29A2E3A01691A71082A01B1
:1035D000461A570A0B2D10E01195019511096F3FFE
:1035E0008FEF780729F4D6019C92C60101966C01F1
:1035F0004617570784F0661677066CF47F01E40CD3
:10360000F51CA1E0B0E0AC0FBD1FEA0EFB1ED70118
:103610001196BC9002C090E3B92E615071093196A9
:10362000C60101967C016017710724F0D601BC9297
:103630006C01D5CF6417750741F4363320F4353368
:1036400021F4A11002C081E3B82EF601B082F70187
:10365000822F90E2882319F091938150FBCFF701DC
:10366000E20FF11D108280E090E029960FB6F894E9
:10367000DEBF0FBECDBFDF91CF911F910F91FF90A5
:10368000EF90DF90CF90BF90AF909F907F906F9022
:103690005F904F900895283008F027E03327DA0133
:1036A000990F311D87FD916000966105710539F410
:1036B00032602E5F3D9330E32A95E1F708959F3FF6
:1036C00030F080387105610509F03C5F3C5F3D9347
:1036D000913008F08068911DDF93CF931F930F9373
:1036E000FF92EF92192F987F9695E92F96959695D0
:1036F000E90FFF27EC51FE4F99273327EE24FF24D3
:10370000A701E70105900894079428F4360FE71EF7
:10371000F81E491F511D660F771F881F991F0694B9
:10372000A1F70590079428F4E70EF81E491F561FCD
:10373000C11D770F881F991F661F0694A1F705907A
:10374000079428F4F80E491F561FC71FD11D880F74
:10375000991F661F771F0694A1F70590079420F420
:10376000490F561FC71FD81F990F661F771F881F45
:103770000694A9F784911095177041F0D695C795D6
:1037800057954795F794E7941A95C1F7EAE8F1E061
:1037900068941590159135916591959105907FE20A
:1037A0007395E118F10A430B560BC90BD009C0F70A
:1037B000E10CF11E431F561FC91FD01D7EF470334C
:1037C00011F48A95E6CFE894015030F0080F0AF41E
:1037D0000027021708F4202F2395022F7A3328F0B0
:1037E00079E37D932A95E9F710C07D932A9589F6B0
:1037F000069497956795379517951794E118F10AF0
:10380000430B560BC90BD00998F023957E91739505
:103810007A3308F070E37C932013B8F77E917061DF
:103820007D9330F0839571E37D9370E32A95E1F702
:103830001124EF90FF900F911F91CF91DF91992765
:1038400087FD90950895DC01FC01672F7191772326
:10385000E1F7329704C07C916D9370836291AE174B
:10386000BF07C8F3089540D008F481E00895E894B4
:1038700009C097FB3EF490958095709561957F4FB8
:103880008F4F9F4F9923A9F0F92F96E9BB27939566
:10389000F695879577956795B795F111F8CFFAF476
:1038A000BB0F11F460FF1BC06F5F7F4F8F4F9F4FA7
:1038B00016C0882311F096E911C0772321F09EE805
:1038C000872F762F05C0662371F096E8862F70E06B
:1038D00060E02AF09A95660F771F881FDAF7880F45
:1038E0009695879597F90895990F0008550FAA0B9B
:1038F000E0E8FEEF16161706E807F907C0F0121603
:103900001306E407F50798F0621B730B840B950B05
:1039100039F40A2661F0232B242B252B21F408955A
:103920000A2609F4A140A6958FEF811D811D0895F7
:103930000BD078C069D028F06ED018F0952309F02C
:103940005AC05FC01124A2C07ED0A0F3959FD1F3CE
:10395000950F50E0551F629FF001729FBB27F00D3D
:10396000B11D639FAA27F00DB11DAA1F649F662792
:10397000B00DA11D661F829F2227B00DA11D621FE1
:10398000739FB00DA11D621F839FA00D611D221F9B
:10399000749F3327A00D611D231F849F600D211D7F
:1039A000822F762F6A2F11249F5750408AF0E1F022
:1039B00088234AF0EE0FFF1FBB1F661F771F881F6B
:1039C00091505040A9F79E3F510570F014C05EC061
:1039D0005F3FECF3983EDCF3869577956795B79556
:1039E000F795E7959F5FC1F7FE2B880F911D969580
:1039F000879597F9089597F99F6780E870E060E0F0
:103A000008959FEF80EC089500240A941616170677
:103A100018060906089500240A94121613061406BF
:103A200005060895092E0394000C11F4882352F022
:103A3000BB0F40F4BF2B11F460FF04C06F5F7F4FDA
:103A40008F4F9F4F089557FD9058440F551F59F0C1
:103A50005F3F71F04795880F97FB991F61F09F3F7B
:103A600079F087950895121613061406551FF2CFA4
:103A70004695F1DF08C0161617061806991FF1CFF4
:103A800086957105610508940895E894BB2766271B
:103A90007727CB0197F9089509D0A59F900DB49F82
:103AA000900DA49F800D911D11240895A29FB00137
:103AB000B39FC001A39F700D811D1124911DB29F62
:103AC000700D811D1124911D08955058BB27AA2700
:103AD0000ED0A8CF99DF30F09EDF20F031F49F3F69
:103AE00011F41EF48ECF0EF4E095E7FB84CFE92F9E
:103AF000AADF80F3BA17620773078407950718F0E7
:103B000071F49EF5C2CF0EF4E0950B2EBA2FA02DC6
:103B10000B01B90190010C01CA01A0011124FF277A
:103B2000591B99F0593F50F4503E68F11A16F04075
:103B3000A22F232F342F4427585FF3CF4695379574
:103B40002795A795F0405395C9F77EF41F16BA0B39
:103B5000620B730B840BBAF09150A1F0FF0FBB1FE7
:103B6000661F771F881FC2F70EC0BA0F621F731F30
:103B7000841F48F4879577956795B795F7959E3F8D
:103B800008F0B3CF9395880F08F09927EE0F97951B
:103B9000879508950CD046CF3EDF40F035DF30F0FA
:103BA00021F45F3F19F027CF511170CF2ACF4BDF9F
:103BB00098F39923C9F35523B1F3951B550BBB27F4
:103BC000AA2762177307840738F09F5F5F4F220FA1
:103BD000331F441FAA1FA9F333D00E2E3AF0E0E89A
:103BE00030D091505040E695001CCAF729D0FE2FE6
:103BF00027D0660F771F881FBB1F26173707480778
:103C0000AB07B0E809F0BB0B802DBF01FF2793582D
:103C10005F4F2AF09E3F510568F0EDCE37CF5F3FF2
:103C2000ECF3983EDCF3869577956795B795F79515
:103C30009F5FC9F7880F911D9695879597F908950D
:103C4000E1E0660F771F881FBB1F621773078407A9
:103C5000BA0720F0621B730B840BBA0BEE1F88F7B8
:103C6000E095089504D06894B11110CF0895F3DE63
:103C700088F09F5790F0B92F9927B751A0F0D1F055
:103C8000660F771F881F991F1AF0BA95C9F712C0DF
:103C9000B13081F0FADEB1E00895F7CE672F782FCA
:103CA0008827B85F39F0B93FCCF38695779567954B
:103CB000B395D9F73EF490958095709561957F4FB7
:103CC0008F4F9F4F089510DE08F48FEF0895FA018B
:103CD000EE0FFF1F30962105310599F16115710531
:103CE00061F48038BFE39B0749F1689490388105FF
:103CF00061F08038BFEF9B0741F0992342F5FF3F09
:103D0000E1053105210511F1E8940894E795D90101
:103D1000AA2329F4AB2FBE2FF85FD0F310C0FF5FAA
:103D200070F4A695E0F7F73950F019F0FF3A38F43F
:103D30009F779F930CD00F9007FC905808953EF00A
:103D400060CE60E070E080E89FE308954FE79F77E2
:103D50005F934F933F932F93A2D02F913F914F9119
:103D60005F91E6DD09C0C0DD880B990B089519F459
:103D70000EF041CE8ACE45CE6EDEC8F39638C0F73F
:103D800007F80F92E8942BE33AEA48EB5FE7DEDDB1
:103D90000F920F920F924DB75EB70F92C0D0E8E02E
:103DA000F1E016D04F915F91EF91FF91E595EE1FF5
:103DB000FF1F49F0FE57E0684427EE0F441FFA95B5
:103DC000E1F74195550B32D00F9007FE26C00895BC
:103DD000DF93CF931F930F93FF92EF92DF927B01BC
:103DE0008C01689405C0DA2EEF01AEDDFE01E89487
:103DF000A5912591359145915591AEF3EF0177DE6F
:103E0000FE019701A801DA9479F7DF90EF90FF9017
:103E10000F911F91CF91DF9108959B01AC0160E05C
:103E200070E080E89FE3B6CEE6CDACC014DEE8F3E8
:103E30009923D9F3940F511DBBF39150504094F046
:103E400059F0882332F0660F771F881F9150504039
:103E5000C1F79E3F510544F7880F911D96958795B0
:103E600097F908955F3FACF0983E9CF0BB2786958C
:103E700077956795B79508F4B1609395C1F7BB0F37
:103E800058F711F460FFE8CF6F5F7F4F8F4F9F4F60
:103E9000E3CFFCCD0EF076C0B4CD6894ACCDDBDDC5
:103EA000C8F39923D1F3C6F3DF93CF931F930F93F6
:103EB000FF92C92FDD2788232AF02197660F771FED
:103EC000881FDAF720E030E040E85FEB9FE38839B5
:103ED00020F0803E30F021968F77F8DDE0E3F1E0CE
:103EE00003C0F4DDEDE5F1E073DF8B01BE01EC0111
:103EF000FB2E6F5771097595771F880B990BB9DCED
:103F000028E132E741E35FE31FDDAF2D9801AE0109
:103F1000FF900F911F91CF91DF91E9DD83CDFA01E1
:103F2000DC01AA0FBB1F9B01AC01BF5728F422275D
:103F30003327442750781FC0B75188F4AB2F002493
:103F4000469537952795011CA395D2F3002069F07B
:103F5000220F331F441FB395DAF30DD0B6CD613075
:103F60007105A0E88A07B94630F49B01AC016627C9
:103F7000772788279078309621F0208331834283F9
:103F8000538308959F3F31F0915020F487957795A2
:103F90006795B795880F911D9695879597F9089520
:103FA000DB018F939F9378DDBF91AF91A29F800D2E
:103FB000911DA39F900DB29F900D11240895A1E231
:103FC0001A2EAA1BBB1BFD010DC0AA1FBB1FEE1F93
:103FD000FF1FA217B307E407F50720F0A21BB30BDE
:103FE000E40BF50B661F771F881F991F1A9469F75A
:103FF00060957095809590959B01AC01BD01CF01B6
:104000000895052E97FB16F400940FD057FD05D0A8
:10401000D6DF07FC02D046F408C050954095309595
:1040200021953F4F4F4F5F4F089590958095709524
:1040300061957F4F8F4F9F4F0895EE0FFF1F881F91
:104040008BBF0790F691E02D1994B7FF25CD24DDA5
:10405000821B930B0895CF93DF938230910510F468
:1040600082E090E0E0915604F091570420E030E0C7
:10407000C0E0D0E0309711F14081518148175907D5
:10408000C0F04817590761F482819381209719F095
:104090009B838A832BC0909357048093560426C039
:1040A0002115310519F04217530718F49A01BE0182
:1040B000DF01EF010280F381E02DDCCF2115310516
:1040C00009F1281B390B2430310590F412968D919B
:1040D0009C9113976115710521F0FB0193838283F5
:1040E00004C09093570480935604FD01329644C057
:1040F000FD01E20FF31F81939193225031092D931B
:104100003C933AC02091540430915504232B41F440
:1041100020910202309103023093550420935404FD
:1041200020910002309101022115310541F42DB793
:104130003EB74091040250910502241B350BE091DB
:104140005404F0915504E217F307A0F42E1B3F0B23
:104150002817390778F0AC014E5F5F4F24173507F9
:1041600048F04E0F5F1F50935504409354048193C1
:10417000919302C0E0E0F0E0CF01DF91CF9108958C
:104180000F931F93CF93DF93009709F48CC0FC012A
:104190003297138212820091560410915704011530
:1041A000110581F420813181820F931F20915404E5
:1041B000309155042817390779F5F0935504E093A9
:1041C000540471C0D80140E050E0AE17BF0750F46E
:1041D00012962D913C911397AD012115310509F1EE
:1041E000D901F3CF9D01DA0133832283608171818C
:1041F000860F971F8217930769F4EC012881398194
:10420000260F371F2E5F3F4F318320838A819B818A
:1042100093838283452B29F4F0935704E09356044B
:1042200042C01396FC93EE931297ED014991599178
:104230009E01240F351FE217F30771F480819181ED
:10424000840F951F029611969C938E938281938181
:1042500013969C938E931297E0E0F0E0D8011296AB
:104260008D919C911397009719F0F8018C01F6CF6E
:104270008D919C9198012E5F3F4F820F931F20914B
:104280005404309155042817390769F4309729F4FC
:10429000109257041092560402C013821282109397
:1042A000550400935404DF91CF911F910F9108950D
:1042B0006F927F928F929F92AF92BF92CF92DF9236
:1042C000EF92FF920F931F93CF93DF93EC01009730
:1042D00081F4CB01DF91CF911F910F91FF90EF906F
:1042E000DF90CF90BF90AF909F908F907F906F9016
:1042F000B2CEFC01E60FF71F9C0122503109E217F4
:10430000F30708F4A8C0D9010D911C911197061765
:104310001707A8F00530110508F49BC0C8010497E1
:104320008617970708F495C002501109061B170B52
:10433000019311936D937C93CF0122DF8AC05B01BF
:10434000A01AB10A4C01800E911EA0915604B091A2
:10435000570440E050E0E12CF12C109709F44AC0DA
:10436000A815B905D1F56D907C901197630182E095
:10437000C80ED11CCA14DB0480F1A3014A195B09E1
:104380006A0182E0C80ED11C1296BC901297139657
:10439000AC91B5E0CB16D10440F0B282A383518337
:1043A0004083D9016D937C930AC00E5F1F4FC301F8
:1043B000800F911FF90191838083EB2DFA2FE11477
:1043C000F10431F0D7011396FC93EE93129741C09C
:1043D000F0935704E09356043CC08D919C91119743
:1043E0004817590708F4AC017D0112960D90BC9155
:1043F000A02DB3CF80915404909155048815990550
:10440000E1F446175707C8F4809100029091010229
:10441000009741F48DB79EB7409104025091050278
:10442000841B950BE817F907B0F4F0935504E0935B
:104430005404F901718360830CC0CB010CDE7C0154
:10444000009749F0A801BE011BD0CE0199DEC7013B
:1044500004C0CE0102C080E090E0DF91CF911F91B7
:104460000F91FF90EF90DF90CF90BF90AF909F9013
:104470008F907F906F90089581E090E0F89410C045
:10448000FB01DC0102C001900D9241505040D8F771
:104490000895FB01DC0101900D920020E1F70895E1
:0444A000F894FFCFBE
:1044A400000058048000000000007903E7021203B2
:1044B400BF0343032103350300000000EB04BC04E5
:1044C4001A059004B404A0049104000000005104EF
:1044D400E7021A051905190B3D04E705C8054352FF
:1044E40043206973206E6F742076616C69642100C7
:1044F4000D0A00446576696365206973206E6F74E4
:10450400207265636F676E697A65640020430020DA
:10451400506100206D002052504D006E616E0069A4
:084524006E66006F7666000070
:020000023000CC
:10E000000D9489F10D94B2F10D94B2F10D94B2F129
:10E010000D94B2F10D94B2F10D94B2F10D94B2F1F0
:10E020000D94B2F10D94B2F10D94B2F10D94B2F1E0
:10E030000D94B2F10D94B2F10D94B2F10D94B2F1D0
:10E040000D94B2F10D94B2F10D94B2F10D94B2F1C0
:10E050000D94B2F10D94B2F10D94B2F10D94B2F1B0
:10E060000D94B2F10D94B2F10D94B2F10D94B2F1A0
:10E070000D94B2F10D94B2F10D94B2F10D94B2F190
:10E080000D94B2F10D94B2F10D94B2F10D94B2F180
:10E090000D94B2F10D94B2F10D94B2F10D94B2F170
:10E0A0000D94B2F10D94B2F10D94B2F10D94B2F160
:10E0B0000D94B2F10D94B2F10D94B2F10D94B2F150
:10E0C0000D94B2F10D94B2F10D94B2F10D94B2F140
:10E0D0000D94B2F10D94B2F10D94B2F10D94B2F130
:10E0E0000D94B2F141546D656761323536300041AF
:10E0F000726475696E6F206578706C6F72657220DE
:10E1000073746B3530305632206279204D4C530099
:10E11000426F6F746C6F616465723E004875683F52
:10E1200000436F6D70696C6564206F6E203D200048
:10E130004350552054797065202020203D20005FF9
:10E140005F4156525F415243485F5F3D2000415658
:10E1500052204C696243205665723D20004743437C
:10E160002056657273696F6E203D20004350552024
:10E1700049442020202020203D20004C6F7720663D
:10E18000757365202020203D20004869676820665F
:10E190007573652020203D200045787420667573D6
:10E1A00065202020203D20004C6F636B2066757336
:10E1B000652020203D20004D617220203720323024
:10E1C000313300312E362E3800342E332E350056A2
:10E1D00023202020414444522020206F7020636F70
:10E1E00064652020202020696E73747275637469E1
:10E1F0006F6E2061646472202020496E74657272B3
:10E20000757074006E6F20766563746F7200726A49
:10E210006D702020006A6D70200057686174207056
:10E220006F72743A00506F7274206E6F7420737541
:10E2300070706F72746564004D7573742062652030
:10E2400061206C6574746572002000577269747483
:10E25000696E672045450052656164696E672045B7
:10E26000450045452065727220636E743D00504F35
:10E27000525400303D5A65726F2061646472003FF1
:10E280003D43505520737461747300403D454550C3
:10E29000524F4D207465737400423D426C696E6B41
:10E2A000204C454400453D44756D70204545505215
:10E2B0004F4D00463D44756D7020464C415348001B
:10E2C000483D48656C70004C3D4C69737420492F83
:10E2D0004F20506F72747300513D51756974005234
:10E2E0003D44756D702052414D00563D73686F7707
:10E2F00020696E7465727275707420566563746FF0
:10E30000727300593D506F727420626C696E6B00BD
:10E310002A0011241FBECFEFD1E2DEBFCDBF01E046
:10E320000CBF12E0A0E0B2E0EEE1FDEF03E00BBFB6
:10E3300002C007900D92A030B107D9F712E0A0E01B
:10E34000B2E001C01D92AE30B107E1F70F9460F367
:10E350000D948DFE01E20EBF0FEF0DBF11241FBE05
:10E360000D9460F30D9400F020E030E040ED57E0B4
:10E3700005C0FA013197F1F72F5F3F4F2817390792
:10E38000C0F308959C01260F311DC901A0E0B0E043
:10E390002F5F3F4FABBFFC018791882361F08093D3
:10E3A000C6008091C00086FFFCCF8091C0008064D1
:10E3B0008093C000EACF08958DE08093C6008091DD
:10E3C000C00086FFFCCF8091C00080648093C000B5
:10E3D0008AE08093C6008091C00086FFFCCF8091C8
:10E3E000C00080648093C00008950F94C2F10F9420
:10E3F000DCF10895FC019081992359F09093C600B7
:10E400008091C00086FFFCCF8091C0008064809323
:10E41000C0003196992379F70895282F982F929567
:10E420009F70892F805D8A3308F0895F8093C600D2
:10E430008091C00086FFFCCF8091C00080648093F3
:10E44000C000822F8F70982F905D9A3308F0995FEB
:10E450009093C6008091C00086FFFCCF8091C000E1
:10E4600080648093C00008959C01FB01853691056E
:10E470001CF46330710594F0C90164E670E00F94F8
:10E480002EFE605D7F4F6093C6008091C00086FFC6
:10E49000FCCF8091C00080648093C0002B30310598
:10E4A00014F43297B4F0C90164E670E00F942EFEC4
:10E4B0006AE070E00F942EFE605D7F4F6093C600AF
:10E4C0008091C00086FFFCCF8091C0008064809363
:10E4D000C000C9016AE070E00F942EFEC0968093E0
:10E4E000C6008091C00086FFFCCF8091C000806490
:10E4F0008093C00008951F93182F8EE692EE60E07F
:10E500000F94C2F11093C6008091C00086FFFCCF2B
:10E510008091C00080648093C0000F94DCF11F9153
:10E5200008952F923F924F925F926F927F928F92B7
:10E530009F92AF92BF92CF92DF92EF92FF920F9392
:10E540001F93DF93CF93CDB7DEB762970FB6F894E2
:10E55000DEBF0FBECDBF382E622ECA01DB015C01CB
:10E560006D01772420E2222E2E010894411C511CBB
:10E570008BC081E0A81680E0B80681E0C80680E084
:10E58000D80628F0C601AA27BB270F940DF2BB2797
:10E59000AD2D9C2D8B2D0F940DF28A2D0F940DF225
:10E5A0002092C6008091C00086FFFCCF8091C00001
:10E5B00080648093C0009DE29093C6008091C0006B
:10E5C00086FFFCCF8091C00080648093C0002092C1
:10E5D000C6008091C00086FFFCCF8091C00080649F
:10E5E0008093C00019828601750188249924A1E0D6
:10E5F0003A1651F03A1620F0B2E03B1661F409C029
:10E600000BBFF701779007C0C7010F9477FE782EF4
:10E6100002C0F7017080872D0F940DF22092C60082
:10E620008091C00086FFFCCF8091C0008064809301
:10E63000C000872D8052F401EF70F0708F3520F408
:10E64000E40DF51D708204C0E40DF51D8EE280839B
:10E650000894E11CF11C011D111D0894811C911CE2
:10E6600090E18916910409F0C2CF80E190E0A0E02A
:10E67000B0E0A80EB91ECA1EDB1E198AC2010F9493
:10E68000FAF10F94DCF16A94662009F072CF629679
:10E690000FB6F894DEBF0FBECDBFCF91DF911F91B3
:10E6A0000F91FF90EF90DF90CF90BF90AF909F9031
:10E6B0008F907F906F905F904F903F902F90089534
:10E6C0002F923F924F925F926F927F928F929F9282
:10E6D000AF92BF92CF92DF92EF92FF920F931F9370
:10E6E000DF93CF93CDB7DEB7CD53D1400FB6F894BB
:10E6F000DEBF0FBECDBF01E20EBF0FEF0DBF94B75F
:10E70000F894A89514BE80916000886180936000A1
:10E7100010926000789493FF05C0E0910002F091A0
:10E7200001021995279A2F9A8091C00082608093E8
:10E73000C00080E18093C40088E18093C1000000A4
:10E74000EE24FF24870144E0A42EB12CCC24DD2448
:10E7500024C0C5010197F1F70894E11CF11C011DCB
:10E76000111D21E2E2162EE4F20620E0020720E06D
:10E77000120718F031E0C32ED12CC801B70127ECE5
:10E780003BE140E050E00F9441FE611571058105C9
:10E79000910519F485B1805885B98091C00087FD35
:10E7A00003C0C114D104A9F2A6014F5F5F4FC25E3E
:10E7B000DE4F59834883CE51D140C25EDE4F8881FF
:10E7C0009981CE51D140019711F00D9410FEC05D9A
:10E7D000DE4F19821882C053D14060E0C15DDE4F28
:10E7E0001882CF52D14088249924C35DDE4F19820C
:10E7F0001882CD52D140C05EDE4F188219821A8233
:10E800001B82C052D140CE5CDE4F188219821A8220
:10E810001B82C253D140EE24FF2487010BBFF701B6
:10E8200007911691C45CDE4F19830883CC53D14005
:10E830000D940BFEC25EDE4F28813981CE51D1404E
:10E840002130310509F52091C600C25EDE4F1982E4
:10E850001882CE51D14022C02F5F3F4F4F4F5F4FA4
:10E86000213082E138078AE7480780E0580780F0C6
:10E87000C45CDE4FE881F981CC53D140EF5FFF4F9C
:10E8800019F0EE27FF27099420E030E040E050E047
:10E890008091C00087FFE0CF2091C600C35DDE4FAE
:10E8A00048815981CD52D1404F5F5F4FC35DDE4FEC
:10E8B00059834883CD52D140213209F063C64A3092
:10E8C000510508F05FC60894811C911C53E0851621
:10E8D000910409F059C600E010E018C081E280936D
:10E8E000C6008091C00086FFFCCF8091C00080648C
:10E8F0008093C0002F5F3F4F2931310579F70F9486
:10E90000DCF10F5F1F4F0530110519F020E030E0FA
:10E91000E5CF10920A0210920B0210920C02109294
:10E920000D02109206021092070210920802109235
:10E930000902109202021092030210920402109235
:10E9400005028FEE90EE60E00F94F5F180E191EE1C
:10E9500060E00F94C2F18091C00087FFFCCF9091DE
:10E96000C600903608F09F759032B8F09093C600BC
:10E970008091C00086FFFCCF8091C00080648093AE
:10E98000C000A0E2A093C6008091C00086FFFCCF2B
:10E990008091C00080648093C000983409F4D7C18E
:10E9A0009934B8F4923409F459C1933458F490333B
:10E9B00019F1903308F4E3C59F33A1F1903409F0C5
:10E9C000DEC5BDC0953409F470C1963409F0D7C5D1
:10E9D00098C1923509F42BC2933538F49C3409F46C
:10E9E000F5C1913509F0CBC518C2963509F445C279
:10E9F000993509F0C4C567C483E792EE62E00F94CD
:10EA0000F5F110920602109207021092080210927D
:10EA1000090210920A0210920B0210920C0210923C
:10EA20000D0213C18FE792EE62E00F94F5F18FEEC5
:10EA300090EE60E00F94F5F181E291EE60E00F94CA
:10EA4000C2F187EB91EE60E00F94F5F180E391EE77
:10EA500060E00F94C2F184EE90EE60E00F94F5F167
:10EA60008FE391EE60E00F94C2F186E090E061E008
:10EA700070E00F9434F20F94DCF18DE591EE60E0DC
:10EA80000F94C2F189EC91EE60E00F94F5F18EE401
:10EA900091EE60E00F94C2F183EC91EE60E00F9490
:10EAA000F5F18CE691EE60E00F94C2F18EE10F94E7
:10EAB0000DF288E90F940DF281E00F940DF20F949E
:10EAC000DCF18BE791EE60E00F94C2F119E0E0E039
:10EAD000F0E010935700E4918E2F0F940DF20F94F5
:10EAE000DCF18AE891EE60E00F94C2F1E3E0F0E03F
:10EAF00010935700E4918E2F0F940DF20F94DCF1D8
:10EB000089E991EE60E00F94C2F1E2E0F0E0109349
:10EB10005700E4918E2F0F940DF20F94DCF188EAE8
:10EB200091EE60E00F94C2F1E1E0F0E01093570045
:10EB30001491812F0F940DF20F94DCF107CF8BE825
:10EB400092EE62E00F94F5F18BE492EE60E00F94A8
:10EB5000F5F10F94DCF100E010E019C0C8016F2D51
:10EB60000F947FFEFF2031F489E492EE60E00F9471
:10EB7000C2F10BC0F092C6008091C00086FFFCCFAE
:10EB80008091C00080648093C0000F5F1F4FC80158
:10EB900081519F41A0E0B0E0ABBFFC01F790BAE229
:10EBA000FB1621F0E2E000301E07C1F60F94DCF105
:10EBB0000F94DCF187E592EE60E00F94F5F10F948D
:10EBC000DCF1CC24DD2400E010E01EC0C8010F946D
:10EBD00077FEF82E882331F489E492EE60E00F94FA
:10EBE000C2F10BC08093C6008091C00086FFFCCFAD
:10EBF0008091C00080648093C000FE1419F00894D6
:10EC0000C11CD11C0F5F1F4FC80181519F41A0E063
:10EC1000B0E0ABBFFC01E790FAE2EF1621F022E092
:10EC20000030120799F60F94DCF10F94DCF182E6C4
:10EC300092EE60E00F94C2F1C60161E070E00F94C3
:10EC400034F20F94DCF10F94DCF110920202109276
:10EC50000302109204021092050278CE89E992EE26
:10EC600062E00F94F5F1279A2F9A16C02F9880E052
:10EC700090E0E0EDF7E03197F1F7019684369105E9
:10EC8000C1F72F9A80E090E0E0EDF7E03197F1F7DF
:10EC9000019684369105C1F78091C00087FFE6CFC9
:10ECA0008091C00087FFFCCF64C485EA92EE62E0E9
:10ECB0000F94F5F140910202509103026091040219
:10ECC0007091050281E020E10F9491F2809102029F
:10ECD00090910302A0910402B091050280509F4FD1
:10ECE000AF4FBF4F8093020290930302A0930402A0
:10ECF000B093050280509041A040B04008F426CE69
:10ED0000A4CF83EB92EE62E00F94F5F140910602FE
:10ED100050910702609108027091090280E020E1A1
:10ED20000F9491F28091060290910702A09108023F
:10ED3000B091090280509F4FAF4FBF4F80930602A2
:10ED400090930702A0930802B0930902FFCD80ECD4
:10ED500092EE62E00F94F5F183E792EE60E00F949B
:10ED6000F5F18FE792EE60E00F94F5F18BE892EE0B
:10ED700060E00F94F5F189E992EE60E00F94F5F10F
:10ED800085EA92EE60E00F94F5F183EB92EE60E09D
:10ED90000F94F5F180EC92EE60E00F94F5F187ECC2
:10EDA00092EE60E00F94F5F188ED92EE60E00F9442
:10EDB000F5F18FED92EE60E00F94F5F18AEE92EEB0
:10EDC00060E00F94F5F183E093EEBDCD87EC92EE19
:10EDD00062E00F94F5F181E40F947BF282E40F94EA
:10EDE0007BF283E40F947BF284E40F947BF285E45E
:10EDF0000F947BF286E40F947BF287E40F947BF20E
:10EE000088E40F947BF28AE40F947BF28BE40F94F6
:10EE10007BF28CE40F947BF299CD88ED92EE62E068
:10EE20000F94F5F1772473948824992409C48FED05
:10EE300092EE62E00F94F5F140910A0250910B02BC
:10EE400060910C0270910D0282E020E10F9491F22A
:10EE500080910A0290910B02A0910C02B0910D02D8
:10EE600080509F4FAF4FBF4F80930A0290930B0289
:10EE7000A0930C02B0930D0269CD8AEE92EE62E08F
:10EE80000F94F5F184EE90EE60E00F94F5F18FECC5
:10EE900091EE60E00F94F5F1662477244301CC5D98
:10EEA000DE4F19821882C452D140D401C301B695F5
:10EEB000A79597958795CA5DDE4F88839983AA8326
:10EEC000BB83C652D140CC5DDE4FA881B981C4520C
:10EED000D1401196CC5DDE4FB983A883C452D14096
:10EEE000CD0162E070E00F9434F2B0E2B093C6005E
:10EEF0008091C00086FFFCCF8091C0008064809329
:10EF0000C000EDE2E093C6008091C00086FFFCCF18
:10EF10008091C00080648093C000F0E2F093C6004E
:10EF20008091C00086FFFCCF8091C00080648093F8
:10EF3000C000CA5DDE4FE880F9800A811B81C6529D
:10EF4000D140BB27A12F902F8F2D0F940DF2CA5DBA
:10EF5000DE4F8881C652D1400F940DF2B0E2FB2EF5
:10EF6000F092C6008091C00086FFFCCF8091C00067
:10EF700080648093C0000DE30093C6008091C000C0
:10EF800086FFFCCF8091C00080648093C00010E2B7
:10EF90001093C6008091C00086FFFCCF8091C00016
:10EFA00080648093C0008BBEF3012791C65DDE4F65
:10EFB0002883CA52D140A22EBB24CC24DD2408943D
:10EFC000611C711C811C911C8BBEF3018791282E42
:10EFD0003324442455240894611C711C811C911C09
:10EFE0008BBEF3013791C55DDE4F3883CB52D140E4
:10EFF0000894611C711C811C911C8BBEF30147910C
:10F00000C45DDE4F4883CC52D140ADEFEA2EAFEF66
:10F01000FA2EAFEF0A2FAFEF1A2F6E0C7F1C801E57
:10F02000911E142D032DF22CEE24EA0CFB1C0C1D5A
:10F030001D1D0F940DF220E22093C6008091C000A8
:10F0400086FFFCCF8091C00080648093C000C65DC5
:10F05000DE4F8881CA52D1400F940DF230E23093D6
:10F06000C6008091C00086FFFCCF8091C000806404
:10F070008093C000C45DDE4F8881CC52D1400F9494
:10F080000DF240E24093C6008091C00086FFFCCFA5
:10F090008091C00080648093C000C55DDE4F888190
:10F0A000CB52D1400F940DF250E25093C6008091A4
:10F0B000C00086FFFCCF8091C00080648093C000B8
:10F0C0008FEFE8168FEFF80680E0080780E018075A
:10F0D00031F484E092EE60E00F94C2F1DFC0D80119
:10F0E000C7018070907CA070B0708050904CA040A0
:10F0F000B040D1F52FEF3FE340E050E0E222F322B1
:10F1000004231523CA5DDE4FA880B980CA80DB8046
:10F11000C652D140AE0CBF1CC01ED11EAA0CBB1CD7
:10F12000CC1CDD1C8EE092EE60E00F94C2F1BB2798
:10F13000A12F902F8F2D0F940DF28E2D0F940DF285
:10F1400030E23093C6008091C00086FFFCCF8091F2
:10F15000C00080648093C0004EE34093C60080915D
:10F16000C00086FFFCCF87C08EE09EEFA0E0B0E03D
:10F17000E822F9220A231B239CE0E91694E9F90608
:10F1800090E0090790E0190709F088C0C45DDE4FE0
:10F19000A881CC52D140EA2EFF2400E010E0102FCD
:10F1A0000F2DFE2CEE24C55DDE4FB881CB52D14031
:10F1B000EB0EF11C011D111DD601C501817090706F
:10F1C000A070B070DC0199278827E80EF91E0A1F8D
:10F1D0001B1F20EF30E040E050E0A222B322C42207
:10F1E000D52241E1AA0CBB1CCC1CDD1C4A95D1F7F1
:10F1F000EA0CFB1C0C1D1D1D81E090E0A0E0B0E0BE
:10F20000282239224A225B2235E1220C331C441C7D
:10F21000551C3A95D1F7E20CF31C041D151D57013E
:10F220006801AA0CBB1CCC1CDD1C85E192EE60E0E1
:10F230000F94C2F1C801AA27BB270F940DF2BB2778
:10F24000A12F902F8F2D0F940DF28E2D0F940DF274
:10F2500090E29093C6008091C00086FFFCCF809121
:10F26000C00080648093C000AEE3A093C60080918C
:10F27000C00086FFFCCF8091C00080648093C000F6
:10F28000C601AA27BB270F940DF2BB27AD2D9C2DDD
:10F290008B2D0F940DF28A2D0F940DF20F94DCF14B
:10F2A000CC5DDE4FE881F981C452D140F99709F471
:10F2B0004DCBF4E0EF2EF12C012D112D6E0C7F1CA7
:10F2C000801E911EF2CD83E093EE62E00F94F5F183
:10F2D0008AE192EE60E00F94C2F18091C00087FF56
:10F2E000FCCF1091C6001F751093C6008091C0001E
:10F2F00086FFFCCF8091C00080648093C0000F9493
:10F30000DCF1812F81548A3108F036C1163409F4BA
:10F3100095C0173490F4133409F44EC0143430F40B
:10F320001134F1F0123409F01DC130C0143409F465
:10F3300059C0153409F016C16BC01A3409F4C4C0A1
:10F340001B3438F4173409F48FC0183409F00AC19B
:10F35000A1C01B3409F4D2C01C3409F003C1E8C0B9
:10F360008FEF81B90DC082B1809582B980E090E0C5
:10F37000E0EDF7E03197F1F70196883C9105C1F790
:10F380008091C00087FFEFCF12B8EFC08FEF84B934
:10F390000DC085B1809585B980E090E0E0EDF7E0A3
:10F3A0003197F1F70196883C9105C1F78091C00033
:10F3B00087FFEFCF15B8D9C08FEF87B90DC088B1DF
:10F3C000809588B980E090E0E0EDF7E03197F1F7C3
:10F3D0000196883C9105C1F78091C00087FFEFCF6F
:10F3E00018B8C3C08FEF8AB90DC08BB180958BB9A7
:10F3F00080E090E0E0EDF7E03197F1F70196883C8E
:10F400009105C1F78091C00087FFEFCF1BB8ADC059
:10F410008FEF8DB90DC08EB180958EB980E090E0F0
:10F42000E0EDF7E03197F1F70196883C9105C1F7DF
:10F430008091C00087FFEFCF1EB897C08FEF80BBD1
:10F440000DC081B3809581BB80E090E0E0EDF7E0F6
:10F450003197F1F70196883C9105C1F78091C00082
:10F4600087FFEFCF11BA81C08FEF83BB0DC084B38C
:10F47000809584BB80E090E0E0EDF7E03197F1F714
:10F480000196883C9105C1F78091C00087FFEFCFBE
:10F4900014BA6BC08FEF809301010FC080910201FD
:10F4A00080958093020180E090E0E0EDF7E03197F5
:10F4B000F1F70196883C9105C1F78091C00087FF64
:10F4C000EDCF1092020151C08FEF809304010FC065
:10F4D0008091050180958093050180E090E0E0ED4A
:10F4E000F7E03197F1F70196883C9105C1F78091DB
:10F4F000C00087FFEDCF1092050137C08FEF8093DA
:10F5000007010FC08091080180958093080180E079
:10F5100090E0E0EDF7E03197F1F70196883C910536
:10F52000C1F78091C00087FFEDCF109208011DC088
:10F530008FEF80930A010FC080910B01809580931B
:10F540000B0180E090E0E0EDF7E03197F1F70196F4
:10F55000883C9105C1F78091C00087FFEDCF1092E4
:10F560000B0103C085E292EEEEC98091C00087FFD7
:10F57000FCCF8091C600EAC988E392EEE4C98CE131
:10F5800091EEE1C988249924933011F1943028F444
:10F59000913089F09230B8F408C0953061F195301F
:10F5A000F0F0963009F048C043C02B3109F042C951
